:020000040800F2
:10000000F8440020911A0008991A00089B1A000869
:100010009D1A00089F1A0008A11A0008000000009D
:10002000000000000000000000000000A31A00080B
:10003000A51A000800000000A71A000853050008D0
:10004000AB1A0008AB1A0008AB1A0008AB1A00087C
:10005000AB1A0008AB1A0008AB1A0008AB1A00086C
:10006000AB1A0008AB1A0008AB1A0008AB1A00085C
:10007000AB1A0008AB1A0008AB1A0008AB1A00084C
:10008000AB1A0008AB1A0008AB1A0008AB1A00083C
:10009000AB1A0008AB1A0008AB1A0008AB1A00082C
:1000A000AB1A0008AB1A0008AB1A0008AB1A00081C
:1000B000AB1A0008AB1A0008AB1A0008AB1A00080C
:1000C000AB1A0008AB1A0008AB1A0008AB1A0008FC
:1000D000AB1A000843060008AB1A0008AB1A000868
:1000E000AB1A0008AB1A0008AB1A0008AB1A0008DC
:1000F000AB1A0008AB1A0008AB1A0008AB1A0008CC
:10010000AB1A0008AB1A0008AB1A0008AB1A0008BB
:10011000AB1A0008AB1A0008AB1A0008AB1A0008AB
:10012000AB1A0008AB1A0008AB1A0008AB1A00089B
:10013000AB1A0008AB1A0008AB1A0008AB1A00088B
:10014000AB1A0008AB1A0008AB1A0008AB1A00087B
:10015000AB1A0008AB1A000897060008AB1A000893
:10016000AB1A0008AB1A0008AB1A0008AB1A00085B
:10017000AB1A0008AB1A0008AB1A0008AB1A00084B
:10018000AB1A0008AB1A000800F002F800F03CF8C7
:100190000AA090E8000C82448344AAF10107DA45E2
:1001A00001D100F031F8AFF2090EBAE80F0013F0F8
:1001B000010F18BFFB1A43F0010318470C1C000085
:1001C0002C1C0000103A24BF78C878C1FAD8520716
:1001D00024BF30C830C144BF04680C6070470000C1
:1001E0000023002400250026103A28BF78C1FBD840
:1001F000520728BF30C148BF0B6070471FB501F0E0
:10020000CAFD1FBD10B510BD01F08EFD1146FFF7F0
:10021000F5FF00F0E1F801F0ACFD03B4FFF7F2FFE9
:1002200003BC01F0B1FD000053110BD002F01F021E
:100230002DE9F00FB1E8F00FA0E8F00F5B1EF9D147
:10024000BDE8F00F931008D000B551F804EB40F86A
:1002500004EB5B1EF9D15DF804EB12F0030205D04C
:1002600011F8013B00F8013B521EF9D1704792F0A2
:10027000000F00D1704700B58446082A2BDDA0EBA3
:10028000010313F0030F26D110F0030309D0C3F1CB
:100290000403A2EB030211F801EB5B1E0CF801EB67
:1002A000F9D153110BD002F01F022DE9F007B1E88C
:1002B000F0475B1EACE8F047F9D1BDE8F0079310BA
:1002C00005D051F804EB5B1E4CF804EBF9D112F0A9
:1002D000030208BF00BD11F801EB521E0CF801EB40
:1002E000F9D100BD8842C2D941EA000343EA0203C2
:1002F00013F00303114402440CD003E011F8013D54
:1003000002F8013D90EA020FF8D1704751F8043D20
:1003100042F8043D90EA020FF8D1704770B50346E9
:100320004FF0000092F0000F08BF70BD0C2A04DDF2
:10033000A3EB010010F0030008D013F8010B11F833
:10034000014B001B01D1521EF7D170BD03EB02051A
:1003500003F0030E23F0030321F0030105F1030270
:10036000A2EB03024FEA92026FF000064FEACE00C2
:1003700006FA00F653F8040B00EA060051F8044BA5
:1003800004EA0604001B08D153F8040B521E51F86E
:10039000044BF7D14FF0000070BD92F0010F0DD16A
:1003A00015F003050AD06FF000064FEAC50506FAFE
:1003B00005F66FEA0606304008BF70BD00EB040387
:1003C00003F0FF0004F0FF02801A18BF70BD4FEA6F
:1003D00013234FEA1424F3E78CB0114803C8CDE986
:1003E0000A010F49083103C9CDE908010C49103150
:1003F00003C9CDE906010A4B18330FCBCDE904231D
:10040000CDE902010724092500F0BCF802AB06AAD9
:100410000AA908A8CDE9004500F0CCF800BFFEE726
:10042000A01D00087FB5684600F0EFFD4E4900981A
:10043000B0FBF1F04D4908604D48006820F0807035
:100440004B4908600846006840F0807008604948E1
:10045000006820F00100474908600846006840F045
:1004600001000860002048604FF47A720198B0FBE8
:10047000F2F1481EB0F1807F01D301201CE0481E3C
:100480004FF0E022506150170F22002808DA1307BE
:100490001D0E374BE43B00F00F04241F1D5503E0F5
:1004A00013071C0E344B1C5400BF00204FF0E022F9
:1004B000906107201061002008B100BFFEE77FBDFA
:1004C00010B500BF2D4850E8001F2A4843682C484B
:1004D00002682A4C44E800100028F3D1981A234CF3
:1004E0002468B0FBF4F001EB4104C4EBC11400EB51
:1004F000C40010BD70B5002100221E4D6C686B68F1
:1005000000BF1C4D6B681D1B29441C46174D2D68F0
:10051000B1FBF5F2824200D307E0801A134D2D683B
:10052000B1FBF5F605FB1611EBE700BF70BD10B58A
:10053000044603E04FF47A70FFF7DCFF2000A4F1DB
:100540000104F7D110BD01460C4800680860002086
:100550007047084840680A49086008480068401C1D
:10056000064908607047000040420F00000000206C
:10057000FCED00E0001000E000E400E004000020DA
:100580000800002010B55048006801F0A1FA10BD25
:1005900010B5044621464C48006801F088FB10BDA8
:1005A00070B504460D462A4621464748006801F0CA
:1005B000A6FB70BD2DE9F04F8DB0074688469146E9
:1005C0001E46DDE916AB01AC4AF6552024F8020BB5
:1005D000388824F8020B788824F8020BB88824F8AD
:1005E000020BB8F8000024F8020BB8F8020024F857
:1005F000020BB8F8040024F8020BB9F8000024F844
:10060000020BB9F8020024F8020BB9F8040024F830
:10061000020B2546306801C5706801C5B06801C588
:10062000F06801C545F804AB45F804BB2C4640F61C
:100630000D2020802E2101A8FFF7B2FF0DB0BDE8EC
:10064000F08F10B540F22661204801F0CFF830B1AC
:10065000002240F226611D4801F08DF81AE040F2B8
:1006600024411A4801F0C2F8A0B118480088174880
:1006700080880021164800F07DF91649144800F0E2
:10068000F2F94FF48071124800F095F901211048F9
:1006900000F070F910BD10B50F490D48303000F072
:1006A00013FA78B10C490A48303000F037FA0021CB
:1006B0000748303000F05EF9012240F2266103481D
:1006C00001F059F810BD000070000020001001403A
:1006D000886402400008002000800028324901435D
:1006E000324A1160704770B5002100230F22C47890
:1006F0001CB32E4C246804F4E064C4F5E064C4F335
:100700000721C1F10404E3B20A4144789C40E1B2FC
:100710008478144021430C07210E254C057861553F
:10072000047804F01F050124AC4005786D11AD007C
:1007300005F1E025C5F8004109E0047804F01F0543
:100740000124AC401B4D0678761145F8264070BD5B
:10075000194A0A400243154B1B1F1A60704739B1F2
:10076000124A121D12680243104B1B1D1A6006E04C
:100770000E4A121D126882430C4B1B1D1A607047F3
:10078000042808D14FF0E021096941F004014FF03D
:10079000E022116107E04FF0E021096921F0040136
:1007A0004FF0E022116170470000FA050CED00E007
:1007B00000E400E080E100E080FFFF1F016821F01D
:1007C000010101600021016041608160C16001613F
:1007D00021214161DB49884204D13D21D94A103AA7
:1007E00091608CE0D7491831884205D14FF474618B
:1007F000D44A103A916082E0D2493031884205D122
:100800004FF47411CF4A103A916078E0CD494831E5
:10081000884205D14FF07461CA4A103A91606EE087
:10082000C8496031884204D1C749C64A103AD160EC
:1008300065E0C4497831884204D1C449C14A103ABC
:10084000D1605CE0BF499031884204D1C049BD4AC3
:10085000103AD16053E0BB49A831884205D14FF02E
:100860003D51B84A103AD16049E0BA49884204D1B2
:100870003D21B84A083A116041E0B6491831884232
:1008800005D14FF47461B34A083A116037E0B149B9
:100890003031884205D14FF47411AE4A083A1160E4
:1008A0002DE0AC494831884205D14FF07461A94A26
:1008B000083A116023E0A7496031884204D1A24977
:1008C000A44A121F11601AE0A2497831884204D16B
:1008D0009E49A04A121F116011E09E499031884242
:1008E00004D19B499B4A121F116008E09949A83125
:1008F000884204D14FF03D51964A121F1160704753
:1009000010B500220268944B1A40CC680B68234350
:100910004C6923438C692343CC6923430C6A2343EA
:100920004C6A23438C6A23434C6B23438C6B2343D5
:100930001A430260426922F00702D1E90B342343D3
:100940001A4342610B6943604B6883608B68C360E4
:1009500010BD0021016041608160C16001614161A1
:100960008161C161016241628162C162016341636F
:100970008163704721B1026842F00102026003E026
:10098000026822F001020260704721B1026842F45D
:100990000042026003E0026822F4004202607047F5
:1009A00021B1026842F02002026003E0026822F0F6
:1009B000200202607047416070470146486880B27B
:1009C000704722B1036843F40023036003E0036827
:1009D00023F4002303600161704721B1026842F4EF
:1009E0008022026003E0026822F4802202607047E5
:1009F0000AB1016100E0C1607047014600200A6849
:100A000002F400220AB1012000E0002070470146F4
:100A100000200A6802F001020AB1012000E0002073
:100A20007047014600204A6902F03800704730B52F
:100A300003460A4600200024464DAB4202D24149FB
:100A4000103901E04349103902F000550DB14C68EE
:100A500000E00C68414D2C4004EA02050DB1012074
:100A600000E0002030BD02463A4B9A4202D235489F
:100A7000103801E03748103801F000531BB1374BF4
:100A80000B40C36002E0354B0B408360704710B5EC
:100A900001F080034BB122B1436943F0800343610D
:100AA00003E0436923F08003436180290BD02AB11E
:100AB000036801F01E042343036004E0036801F0AF
:100AC0001E04A343036010BD70B50246002000243D
:100AD0000025204EB24202D21A4B103B01E01D4BC2
:100AE000103B1F4E0E4036B11E2606EAD124166872
:100AF00006EA040502E0566906F0800501F000569A
:100B00000EB15C6800E01C68144E344004EA010633
:100B100016B10DB1012000E0002070BD02460D4B62
:100B20009A4202D20748103801E00A48103801F012
:100B300000531BB1094B0B40C36002E0074B0B4055
:100B400083607047106002403D000020400F00208D
:100B500000003D20106402403F801CF07D0F7D0F9F
:100B60003C0F3C0F10B504469848844208D101213F
:100B7000084600F086FB0021012000F082FB76E0B1
:100B80009348844208D10121022000F07AFB002121
:100B9000022000F076FB6AE08E48844208D10121F1
:100BA000042000F06EFB0021042000F06AFB5EE0F0
:100BB0008948844208D10121082000F062FB00210D
:100BC000082000F05EFB52E08448844208D10121F5
:100BD000102000F056FB0021102000F052FB46E0F0
:100BE0007F48844208D10121202000F04AFB0021E7
:100BF000202000F046FB3AE07A48844208D10121E7
:100C0000402000F03EFB0021402000F03AFB2EE0A7
:100C10007548844208D10121802000F032FB002178
:100C2000802000F02EFB22E07048844208D1012190
:100C3000801500F026FB0021A01500F022FB16E035
:100C40006B48844208D10121401500F01AFB0021B5
:100C5000601500F016FB0AE06648844207D10121C6
:100C6000001500F00EFB0021201500F00AFB10BD5E
:100C7000F0B50A4600210023002400BF3DE0012515
:100C800005FA01F3156805EA03049C4234D10568AE
:100C90004F000326BE40B543056015794E00B540B0
:100CA0000668354305601579012D02D01579022DAE
:100CB00016D185684F000326BE40B543856055793F
:100CC0004E00B540866835438560456801268E40F4
:100CD000B5434560456896798E40B6B23543456068
:100CE000C5684F000326BE40B543C560D5794E00A8
:100CF000B540C6683543C560491C1029BFD3F0BD57
:100D00004FF6FF7101600021017141718171C17164
:100D1000704708B54FF480320092009A0A4300925F
:100D2000009AC261C161009AC261C2690092C2693F
:100D3000009208BD0246002013690B400BB1012050
:100D400000E0002070470146086980B27047024603
:100D5000002053690B400BB1012000E000207047D8
:100D60000146486980B270470183704741837047EC
:100D70000AB1018300E041837047416170474269D5
:100D80004A4042617047F0B5002300244D07ED0E44
:100D900002FA05F3CE1000F1200555F826504E0753
:100DA000F70E0F26BE40B543CF1000F1200646F8DF
:100DB0002750CE1000F1200555F8265045EA0304CF
:100DC000CE1000F1200545F82640F0BD000002409D
:100DD0000004024000080240000C024000100240E3
:100DE0000014024000180240001C02400020024093
:100DF0000024024000280240F948006840F0010049
:100E0000F74908600020F64908310860F448006896
:100E1000F4490840F2490860F348091D0860F348A6
:100E2000EF4984310860F0481038091D0860EC482B
:100E3000006820F48020EA4908600020E8490C316D
:100E40000860E7498C31086070470021E44A921C31
:100E5000117011460870704710B50146002200233A
:100E600000204A11012A02D1DD4C236808E0022A41
:100E700003D1DB4C7034236802E0D94C743423680E
:100E800001F01F02012494401C400CB1012000E03D
:100E9000002010BD38B5002000900024002500BFC0
:100EA0003120FFF7D9FF05460098401C00900098BC
:100EB000B0F5A04F01D0002DF2D03120FFF7CCFFCC
:100EC00008B1012400E00024204638BD014600207E
:100ED000C34A106820F0F80040EAC1001060704773
:100EE000C349086070470021BD4A7032117011700B
:100EF000012802D004280AD104E00121B84A703246
:100F0000117005E00521B64A7032117000E000BF93
:100F100000BF7047B7490860704770B5049C41EA4C
:100F200082150126C6EB530645EA0645054345EA08
:100F30000465AB4E361D356070BDAD49086670471F
:100F4000820142EA0172A64B84331A607047A849B5
:100F50008866704710B5830143EA016343EA027370
:100F60009F4C8834236010BDA14908677047A04991
:100F7000C864704702460020994B0833186820F077
:100F8000EC6042EA01031843954B08331860704740
:100F900002460020924B0833186820F0784042EA5D
:100FA000010318438E4B0833186070470146002038
:100FB0008B4A0832106820F0030008431060704725
:100FC00087480830006800F00C0070470146002098
:100FD000834A0832106820F0F00008431060704720
:100FE000014600207E4A0832106820F4E050084391
:100FF0001060704701460020794A0832106820F4DA
:10100000604040EAC10010607047F0B50021002246
:101010000024022500260223714F08373F6807F09D
:101020000C0121B1042905D0082937D105E0724F00
:10103000076036E0714F076033E0694F3F1D3F683E
:10104000C7F38056664F3F1D3F6807F03F036EB100
:101050006A4FB7FBF3F7DFF888C10CF1040CDCF83A
:1010600000C0CCF3881C07FB0CF40CE0624FB7FB0C
:10107000F3F7DFF86CC10CF1040CDCF800C0CCF322
:10108000881C07FB0CF4564F3F1D3F68C7F3014710
:101090007F1C7D00B4FBF5F7076002E0564F076048
:1010A00000BF00BF4E4F08373F6807F0F001090945
:1010B000534F7A5C0768D7404760494F08373F680D
:1010C00007F4E051890A4E4F7A5C4768D740876041
:1010D000434F08373F6807F46041490B484F7A5C3B
:1010E0004768D740C760F0BD002100F44072B2F5F8
:1010F000407F0AD13A4A0832116821F4F811414A76
:1011000002401143364A08321160354A7032126883
:10111000C0F30B031A43324B70331A6070473549E2
:101120004439086070473349403908607047364990
:101130000860704701460020294A8C32106820F070
:101140001F004A1E1043264A8C3210607047014629
:101150000020234A8C32106820F4F8504A1E40EADE
:1011600002201F4A8C3210607047014600201C4A42
:101170008C32106820F4401008431060704701461C
:101180000020174A8C32106820F440000843106099
:10119000704701460020124A8C32106820F440301B
:1011A00008431060704719490860704739B10C4A0C
:1011B0003032126802430A4B30331A6006E0084AA4
:1011C000303212688243064B30331A607047F9B1EF
:1011D000034A343212680243014B34331A601CE074
:1011E00000380240FFFFF6EA1030002400300020F3
:1011F00000004742800E47420024F40000127A00AB
:1012000074000020FFFCFF0F5C014742E0114742E1
:10121000854A12688243844B1A60704739B1824A0A
:10122000121D12680243804B1B1D1A6006E07E4AA5
:10123000121D126882437C4B1B1D1A60704739B126
:10124000794A0C3212680243774B0C331A6006E07D
:10125000754A0C3212688243734B0C331A60704724
:1012600039B1714A1032126802436F4B10331A6061
:1012700006E06D4A1032126882436B4B10331A60DD
:10128000704739B1684A243A12680243664B243BDE
:101290001A6006E0644A243A12688243624B243B97
:1012A0001A60704739B1604A203A126802435E4BB7
:1012B000203B1A6006E05C4A203A126882435A4B8F
:1012C000203B1A60704739B1574A1C3A12680243F2
:1012D000554B1C3B1A6006E0534A1C3A1268824385
:1012E000514B1C3B1A60704739B14F4A143A12688F
:1012F00002434D4B143B1A6006E04B4A143A126805
:101300008243494B143B1A60704739B1464A103A40
:1013100012680243444B103B1A6006E0424A103AFE
:1013200012688243404B103B1A60704739B13E4A05
:101330001C32126802433C4B1C331A6006E03A4AE6
:101340001C3212688243384B1C331A60704739B123
:10135000354A203212680243334B20331A6006E0CC
:10136000314A2032126882432F4B20331A60704773
:1013700039B12D4A2432126802432B4B24331A60B0
:1013800006E0294A243212688243274B24331A602C
:10139000704739B1244A2C3212680243224B2C3355
:1013A0001A6006E0204A2C32126882431E4B2C330E
:1013B0001A60704739B11C4A3032126802431A4B26
:1013C00030331A6006E0184A303212688243164BF6
:1013D00030331A60704739B1134A273A1278024302
:1013E000114B273B1A7006E00F4A273A12788243C6
:1013F0000D4B273B1A7070470B484030006840F097
:101400008070094940310860704701460020064A53
:10141000283A12680A400AB1012000E00020704713
:1014200001492639087070473438024010B5044627
:10143000FA48844208D101211020FFF766FF0021FD
:101440001020FFF762FF57E0F548844209D10121DF
:101450004804FFF749FF00214FF40030FFF744FF35
:101460004AE0F048844209D101218804FFF73CFF9B
:1014700000214FF48020FFF737FF3DE0EA48844227
:1014800009D10121C804FFF72FFF00214FF40020EC
:10149000FFF72AFF30E0E548844209D10121080521
:1014A000FFF722FF00214FF48010FFF71DFF23E01C
:1014B000DF48844208D101212020FFF726FF0021C8
:1014C0002020FFF722FF17E0DA48844209D10121EA
:1014D0008807FFF709FF00214FF08040FFF704FF66
:1014E0000AE0D548844207D101214005FFF7FCFE00
:1014F00000216005FFF7F8FE10BD2DE9FF47054606
:101500000E460024A14600BFA046B08900B100BF2E
:101510002C8A24F44054F08804432C82AC8941F294
:101520000C608443B08831890843718908430443BF
:10153000AC81AC8A24F44074B0890443AC82684620
:10154000FFF763FDB548854202D0B948854202D114
:10155000DDF80C9001E0DDF80890A88900F4004067
:1015600040B109EBC90000EB091031684900B0FB3C
:10157000F1F707E009EBC90000EB091031688900B9
:10158000B0FBF1F76420B7FBF0F0040120096421FF
:1015900001FB1078A88900F4004040B1322000EB34
:1015A000C800B0FBF1F000F00700044308E032206F
:1015B00000EB08106421B0FBF1F000F00F000443D1
:1015C0002C81BDE8FF874FF4165101600021818016
:1015D000C18001810C21418100218181704710B5BA
:1015E00002460020108A20F470600B884C88234348
:1015F0008C882343CC8823431843108210BD0021DC
:10160000018041808180C180704721B1828942F48C
:101610000052828104E082894DF6FF731A40828174
:101620007047028B02F47F420283028B0A430283DB
:10163000704721B1828942F40042828103E08289AD
:10164000C2F30E028281704721B1828A42F40062A5
:10165000828204E0828A4FF2FF731A4082827047CE
:10166000C1F308028280704701468888C0F30800F1
:101670007047028A4FF6F0731A400282028A0A43C8
:101680000282704721B1828942F00202828104E025
:1016900082894FF6FD731A408281704782894FF22A
:1016A000FF731A40828182890A4382817047028ACD
:1016B0004FF6DF731A400282028A0A4302827047A1
:1016C00021B1028A42F48042028204E0028A4BF68F
:1016D000FF731A4002827047818941F001018181C4
:1016E000704721B1828A42F00802828204E0828A35
:1016F0004FF6F7731A4082827047028BD2B2028390
:10170000028B42EA01220283704721B1828A42F0B1
:101710002002828204E0828A4FF6DF731A408282BE
:10172000704721B1828A42F01002828204E0828AEC
:101730004FF6EF731A4082827047828A4FF6FB732E
:101740001A408282828A0A438282704721B1828A49
:1017500042F00202828204E0828A4FF6FD731A4050
:10176000828270471AB1838A0B43838202E0838AA4
:101770008B4383827047F0B5034600240026002582
:10178000002040F66A17B94200D100BF1846C1F3E5
:10179000421401F01F06012707FA06F5012C01D1BA
:1017A0000C3004E0022C01D1103000E014301AB1EA
:1017B00007682F43076002E00768AF430760F0BD8A
:1017C00002460020B1F5007F00D100BF13880B4016
:1017D0000BB1012000E00020704701F40072B2F567
:1017E000007F00D100BFCA430280704770B5024637
:1017F000002400230025002040F66A16B14200D1E3
:1018000000BFC1F3421501F01F03012606FA03F3DE
:10181000012D13D19689334017E0000000100140DC
:101820000044004000480040004C00400050004090
:101830000014014000780040007C0040022D02D1DD
:10184000168A334001E0968A33400C12012606FACC
:1018500004F41688344013B10CB1012000E00020DC
:1018600070BD10B50022002340F66A14A14200D1D9
:1018700000BF0A1201249440A3B2DC43048010BDCF
:101880000CB50020019000907648006840F480304C
:101890007449086000BF7348006800F4003000908D
:1018A0000198401C0190009818B90198B0F5A04F1C
:1018B000F1D16C48006800F4003010B101200090B4
:1018C00001E0002000900098012846D16548403092
:1018D000006840F080506349403108606248006809
:1018E00040F44040604908605E48083000685D4947
:1018F000083108600846006840F400400860084667
:10190000006840F4A05008605848091F0860081F8C
:10191000006840F08070091F086000BF51480068EF
:1019200000F000700028F9D040F2056050490860CE
:101930004C480830006820F003004A49083108602C
:101940000846006840F00200086000BF45480830C3
:10195000006800F00C000828F8D10CBD10B545480F
:10196000006840F47000434908603E48006840F059
:1019700001003C49086000203A49083108603948B4
:1019800000683D490840374908603C48091D086027
:10199000081F006820F48020091F086000203149DA
:1019A0000C310860FFF76CFF4FF00060314980395F
:1019B000086010BD70B5002000220223002402211F
:1019C000284D08352D6805F00C0020B1042806D0FC
:1019D000082834D107E02A4D2A4E356033E02A4DDD
:1019E000284E35602FE01F4D2D1D2D68C5F3805406
:1019F0001C4D2D1D2D6805F03F0154B1224DB5FB46
:101A0000F1F5184E361D3668C6F3881605FB06F24A
:101A100009E01B4DB5FBF1F5124E361D3668C6F3D5
:101A2000881605FB06F20F4D2D1D2D68C5F30145E7
:101A30006D1C6B00B2FBF3F5124E356003E0104DE8
:101A4000104E356000BF00BF064D08352D68C5F348
:101A500003150E4E705D0B4D2D68C540094E356067
:101A600070BD00000038024000700040085440077C
:101A7000003C024088ED00E0FFFFF6FE103000243D
:101A80000024F4008400002000127A008800002066
:101A90000948804709480047FEE7FEE7FEE7FEE702
:101AA000FEE7FEE7FEE7FEE7FEE7FEE7044805493E
:101AB000054A064B704700005D19000889010008BF
:101AC000F8020020F8440020F8040020F804002068
:101AD00010B598B004460121D4E9052090470121B2
:101AE000D4E90920904794F86020E18B2069FFF742
:101AF0004AF994F86020E18D206AFFF744F910A8B4
:101B0000FFF7FEF8A08B109002208DF84400032010
:101B10008DF8450000208DF8460001208DF8470023
:101B200010A92069FFF7A4F8A08D109000208DF86F
:101B3000470010A9206AFFF79BF80121D4E9012092
:101B4000904714A8FFF73FFDE06814900020ADF81F
:101B50005400ADF85600ADF85800ADF85C000C200C
:101B6000ADF85A0012A8FFF74AFD12A92068FFF746
:101B700036FD14A92068FFF7C0FC002240F2266160
:101B80002068FFF7F8FD012240F224412068FFF7AA
:101B9000F2FD002240F225512068FFF7ECFD002203
:101BA00040F227712068FFF7E6FD04F13000FEF7F0
:101BB0009AFD0121D4E90E20904704F13400FEF78C
:101BC00092FDA06CFEF7FAFDE06C01902068001D0C
:101BD0000290606C039040200490206C05900020DF
:101BE00006904FF4806007900020089009900A90BA
:101BF0004FF400300B9000200C9001200D9000203D
:101C00000E900F9001A9A06CFEF77AFE0122102120
:101C1000A06CFEF73CFFA06DFEF7D0FD206D059097
:101C2000E06D019000200490606D039001A9A06D0B
:101C3000FEF766FE0121A06DFEF79CFE0122C02189
:101C40002068FFF78FFD01212068FFF7DEFC18B048
:101C500010BD1CB50446A08B009000208DF8040038
:101C60008DF8070069462069FFF702F8A08D009003
:101C70006946206AFEF7FCFFA06CFEF79FFD00BFDF
:101C8000A06CFEF7C4FE0028FAD10021A06CFEF77C
:101C900071FEA06DFEF792FD00BFA06DFEF7B7FECE
:101CA0000028FAD10021A06DFEF764FE1CBD70B5BE
:101CB00004460D4629462068FFF7D2FC00BF80216C
:101CC0002068FFF77DFD0028F9D070BD2DE9F041B7
:101CD00004460D46164600270AE0E95D2068FFF736
:101CE000BFFC00BF80212068FFF76AFD0028F9D003
:101CF0003846791CCFB2B042EFDBBDE8F08170B559
:101D000004460E4615462A463146606CFEF78CFAAC
:101D10002946A06CFEF74FFE0121A06CFEF72AFEBB
:101D200070BD704770477047754600F029F8AE46A1
:101D300005006946534620F00700854618B020B5D7
:101D4000FFF7B4FEBDE820404FF000064FF000075B
:101D50004FF000084FF0000B21F00701AC46ACE853
:101D6000C009ACE8C009ACE8C009ACE8C0098D46C0
:101D700070470446AFF300802046FEF74EFA00009D
:101D8000004870479802002001491820ABBEFEE7CA
:101D90002600020070474FF04070E1EE100A7047D5
:101DA0000000010002000000030004000500000024
:101DB000060007000800000000000000010000000D
:101DC0000200000003000000E81D000800000020E1
:101DD00098000000C4010008801E00089800002040
:101DE00060440000E0010008000000000000000066
:101DF0000000000000100140611200081000000007
:101E000000C2010000000240AD1100080100000006
:101E10000002090000000240AD11000801000000AE
:101E200000040A002501020146010301AD1100086A
:101E3000000040000001000098000020B86402404B
:101E400000000008000100009801002088640240A2
:101E500000000008070000000C0000200000000047
:101E6000010203040102030406070809007A030AB9
:101E7000000000000000000001020304060708093A
:040000050800018965
:00000001FF
