:020000040800F2
:10000000E01D002029020008ED1F0008231B000846
:10001000EB1F0008CF0700084F3900080000000060
:10002000000000000000000000000000D7260008CB
:100030003F12000800000000752000088927000812
:10004000430200084302000843020008430200087C
:10005000430200084302000843020008430200086C
:10006000430200084302000843020008CD0D0008C7
:10007000430200084302000843020008430200084C
:100080003D0E0008850E00084302000843020008E8
:10009000430200084302000843020008430200082C
:1000A000430200084302000843020008430200081C
:1000B00043020008E927000811280008430200084D
:1000C00043020008430200084302000843020008FC
:1000D000430200088B2B0008912B00084302000804
:1000E00043020008430200084302000843020008DC
:1000F00043020008430200084302000843020008CC
:10010000430200084302000839280008430200089F
:1001100043020008430200084302000843020008AB
:1001200043020008C50E00080D0F00084302000836
:10013000430200084302000843020008430200088B
:100140004302000843020008430200086920000837
:1001500043020008510F0008910F0008972B000878
:10016000430200084302000843020008430200085B
:10017000430200084302000843020008430200084B
:10018000430200084302000800F002F800F03CF8C7
:100190000AA090E8000C82448344AAF10107DA45E2
:1001A00001D100F031F8AFF2090EBAE80F0013F0F8
:1001B000010F18BFFB1A43F0010318476C4D0000F4
:1001C0008C4D0000103A24BF78C878C1FAD8520785
:1001D00024BF30C830C144BF04680C6070470000C1
:1001E0000023002400250026103A28BF78C1FBD840
:1001F000520728BF30C148BF0B6070471FB504F0DD
:1002000034FE1FBD10B510BD00F0F6F81146FFF723
:10021000F5FF03F057FE00F014F903B4FFF7F2FF07
:1002200003BC00F015F90000094880470948004761
:10023000FEE7FEE7FEE7FEE7FEE7FEE7FEE7FEE796
:10024000FEE7FEE704480549054A064B70470000F3
:100250008D27000889010008E0170020E01D00201C
:10026000E0190020E0190020032A40F2308010F04D
:10027000030C00F0158011F8013BBCF1020F624441
:1002800098BF11F801CB00F8013B38BF11F8013BD2
:10029000A2F1040298BF00F801CB38BF00F8013B7F
:1002A00011F0030300F07180083AC0F0088051F8A3
:1002B000043B083A51F804CBA0E80810F5E7121DFA
:1002C0005CBF51F8043B40F8043BAFF30080D20719
:1002D00024BF11F8013B11F801CB48BF11F8012BE5
:1002E00024BF00F8013B00F801CB48BF00F8012B08
:1002F00070474FF000020429C0F0128010F0030C88
:1003000000F01B80CCF1040CBCF1020F18BF00F808
:10031000012BA8BF20F8022BA1EB0C0100F00DB8B7
:100320005FEAC17C24BF00F8012B00F8012B48BF15
:1003300000F8012B70474FF0000200B513469446B9
:100340009646203922BFA0E80C50A0E80C50B1F12D
:100350002001BFF4F7AF090728BFA0E80C5048BF41
:100360000CC05DF804EB890028BF40F8042B08BFDF
:10037000704748BF20F8022B11F0804F18BF00F8DB
:10038000012B704770477047704710B5203AC0F096
:100390000B80B1E81850203AA0E81850B1E8185086
:1003A000A0E81850BFF4F5AF5FEA027C24BFB1E8C3
:1003B0001850A0E8185044BF18C918C0BDE8104034
:1003C0005FEA827C24BF51F8043B40F8043B08BF3D
:1003D0007047D20728BF31F8023B48BF11F8012B04
:1003E00028BF20F8023B48BF00F8012B70470000EF
:1003F000004870477C1700207546FFF7F9FFAE46AE
:1004000005006946534620F00700854618B020B520
:10041000FFF718FFBDE820404FF000064FF000073F
:100420004FF000084FF0000B21F00701AC46ACE89C
:10043000C009ACE8C009ACE8C009ACE8C0098D4609
:1004400070470446AFF300802046FFF7E6FE000049
:1004500001491820ABBEFEE7260002007047704736
:1004600010B54FF4E131012000F024FFBDE8104049
:100470000149012001F034B85F0400080A46014632
:10048000012001F035B8000070B5444E444B002403
:1004900035686D1C356093ED000AD0ED000A954279
:1004A00030EE200A83ED000AD3ED010A90ED011A27
:1004B00070EE810AC3ED010AD3ED020A90ED021A33
:1004C00070EE810AC3ED020AD3ED030A90ED031A20
:1004D00070EE810AC3ED030AD3ED040A90ED041A0D
:1004E00070EE810AC3ED040AD3ED050A90ED051AFA
:1004F00070EE810AC3ED050A4ED300EE902A00206B
:100500000124F8EE600A80EE201A00EE102AB8EE00
:10051000400A81ED001AD3ED010A80EE801A00EE48
:10052000102A81ED011AB8EE401AD3ED020A80EECE
:10053000810AF7EE000A30EE200A81ED020A00EE91
:10054000102AD3ED030AB8EE400A80EE801A00EEBE
:10055000102AB8EE400A81ED031AD3ED040A80EEAA
:10056000801A00EE102AB8EE400A81ED041AD3ED8D
:10057000050A80EE801A9FED0B0A81ED051A3060A6
:1005800083ED000A83ED010A83ED020A83ED030A7D
:1005900083ED040A83ED050A204670BD00000020AB
:1005A000D00100200000000010B5054803F028FD30
:1005B00000F0C6FFBDE810400249002001F022B85B
:1005C000E8010020251B000810B501F025F8FFF711
:1005D000EBFF00F065F8FFF743FF0121084601F04B
:1005E0002FFE0022BDE810400F21014801F06BBA38
:1005F00000000240054C002520780028FCD001F0C6
:100600002FF8257000F004F8F6E70000080000203D
:1006100070B54FF480711F48FFF76BFE1E481F4BEB
:100620001C4D90EDA50A002483ED000A90EDA60A6A
:1006300083ED010A90EDA70A83ED020A90ED950A79
:1006400083ED030A90ED960A83ED040A90ED970A74
:1006500083ED050A03EB840090ED000A05EB8400AE
:10066000C01C01F0CDFA641C0C2CF3DB8820287030
:10067000A12068703020A8703321064801F045FAA7
:10068000044981F83300BDE8704034210148FFF788
:10069000F5BE000084000020E80500208808002046
:1006A00010B51421002001F027F9C821012001F024
:1006B00023F90121064801F06BF94FF47A71022009
:1006C00001F01AF9BDE810400221024801F060B9BA
:1006D000253E0008553E000810B5044601F0DAFE3C
:1006E000204601F03BFE204601F080FE2046BDE89A
:1006F000104001F0A5BF818940680183704781895E
:1007000040684183704700001FB5044600682349D4
:1007100088420BD02249884208D02249884205D01D
:100720002149884202D02149884204D101216068D0
:1007300001F0AAFD03E00121606801F08DFDA068D1
:100740000190A089ADF800000020ADF80200ADF8DE
:1007500008006946206802F0A5F80121206802F02F
:1007600082F8607C012817D101221146206802F02E
:1007700090F84FF4806001F06DFCA07B8DF80C00C8
:10078000E07B8DF80D00207C8DF80E0001208DF8A7
:100790000F0003A801F02CFC1FBD00000000014069
:1007A0000004014000400140004401400048014075
:1007B00010B5044602F068F9204602F0CDF8204654
:1007C00002F00EF92046BDE8104002F093B9FEE7B2
:1007D0000A4610B5090602F07F0306D503EB830134
:1007E00000EBC10101F58E7105E002EB820100EB27
:1007F000C10101F55D7100248C700B70D2094A7043
:1008000002F06BFF002010BD70B50C460E0601F023
:100810007F0505EB850100EBC10102D501F58E7165
:1008200001E001F55D71E4090D704C708A60CB70D8
:1008300000D0CD80022B01D100220A7102F024FFEA
:10084000002070BD10B501F07F0404EB840100EBC3
:10085000C101C1F88833C1F880230023C1F88C336B
:1008600081F8753381F87443C37801F55D71012B0C
:1008700000D10A6114F0FF0F03D002F05FFF0020E7
:1008800010BD02F097FEFAE70069002261F30A1238
:1008900001681143016070470A4610B5090602F06D
:1008A0007F0306D503EB830100EBC10101F58E71D7
:1008B00005E002EB820100EBC10101F55D7101244D
:1008C0008C700B70D2094A7002F020FF002010BD1E
:1008D00070B511F07F0404EB840100EBC1014FF00F
:1008E000010581F81D5181F81C41C1F82821C1F88A
:1008F0002C2101F58E714FF00002C1E9053203D0C1
:1009000002F01CFF002070BD02F054FEFAE7000068
:100910007FB5064602F032FE684601F0CDFCF06875
:10092000019DC16821F47054C460304602F0BAFFE2
:10093000002103280DD00120B0704020B080354840
:1009400035492844884209D224F4705101F5605198
:1009500056E0B1704FF40070B0802CE02F48304961
:100960002844884204D224F4705101F5505147E0E4
:100970002C482D492844884204D224F4705101F5B2
:1009800040513DE029482A492844884204D224F4B1
:10099000705101F5305133E02648274928448842F8
:1009A00004D224F4705101F5205129E02348244950
:1009B0002844884204D224F4705101F510511FE0FC
:1009C000204821492844884204D224F4705101F57A
:1009D000005115E01D481E492844884204D224F4E1
:1009E000705101F5E0510BE01A481B492844884238
:1009F00024F4705102D201F5C05101E001F5A0517B
:100A0000F068C160F1684FF40050486104B0012003
:100A100070BD0000401E1BFF40420F0000DC0BFFBA
:100A2000E0C810002013FBFE20D61300003DE7FEB7
:100A3000006A180000D3CEFE40771B00C05BB3FEF7
:100A4000C091210000CA91FE40AC2700C01D6AFE83
:100A500040E13300803C36FEE09C41002DE9F0414E
:100A60000646002502F03BFF074650E0F8074CD051
:100A70003069EAB20169436BD34006EB820203F0AE
:100A80000103926941EAC31194680C40E1071AD04E
:100A90000124426B04FA05F18A43426306EB8500A8
:100AA000806984601C48E9B200684268304690471B
:100AB000F078012807D135B996F81101042802D140
:100AC000304602F0CFFD200704D506EB8500082450
:100AD00080698460E00604D506EB850010248069F7
:100AE0008460600604D506EB85004024806984603C
:100AF000A00704D506EB85000224806984602006E7
:100B000003D52946304600F017F97F086D1C002FE9
:100B1000ACD10120BDE8F0816C0000202DE9F0414E
:100B20000646002402F0E1FE0746DFF8988043E025
:100B3000F8073FD0E1B2304602F0DDFE0546C007BF
:100B400025D006EB84000125416D8D60F1780129E7
:100B50000CD1406D016904EB840006EBC000C1F3C9
:100B60001201D0F87C23511AC0F88C13D8F8000079
:100B7000E1B2026830469047F078012807D134B9D5
:100B800096F81101052802D1304602F06BFDA80746
:100B900004D506EB84000225406D8560280709D541
:100BA000D8F8000081683046884706EB84010820A9
:100BB000496D88607F08641C002FB9D10120BDE811
:100BC000F08100006C00002070B50646C0688169A5
:100BD00021F010018161F068056A05F00F0000EB5B
:100BE000800006EBC004C5F3434004F55D7407289C
:100BF00021D2DFE800F0202004202020150047F655
:100C0000F070054217D0C5F30A152A463046E16850
:100C100002F079FEE0682844E060A069284409E019
:100C2000082206F2CC51304602F06DFEA069C5F3F1
:100C30000A110844A061F068816941F010018161E6
:100C4000012070BD38B5044600208DF8000094F8EE
:100C500012018DF800001548006841692046884758
:100C600020698068E2684FF400615161A17AD1B1D6
:100C7000C00718D094F81501012814D19DF8000080
:100C8000032810D1D4F80C01016841F00101016082
:100C9000D4F80C01016841F00301016004480168C7
:100CA00041F006010160012038BD00006C00002009
:100CB00010ED00E070B5044600690025012641688A
:100CC00021F0010141602946204602F0CBFD0020C1
:100CD000FF2106E004EB800293699960526D9160F8
:100CE000401C62788242F5D821694FF0FF3088615C
:100CF0002846216966F30F0066F31F40C861216929
:100D000045F00B004861216945F00B00086120693E
:100D1000016821F4FE610160204602F0A3FCE16855
:100D20004FF48050486103480068016920468847B5
:100D3000012070BD6C0000202DE9F0470D460646ED
:100D400001EB850006EBC004D4E94C01421AD4F84B
:100D5000240104F58E74904200D2024606EB850908
:100D6000D21CD9F818009708806923E0A0EB01088D
:100D7000A068404500D2804608F1030087081FFAAA
:100D800088F3EAB23046E16802F0CDFDE16801EB9C
:100D90000800E060A1694144A161D9F818008069A8
:100DA00062698A4206D1217801228A4031694B6BFF
:100DB00093434B6380B2B84205D9D4E9050181421F
:100DC00001D20028D2D10120BDE8F08770B5164CC1
:100DD000204600F04DFC1549206E00F0F7F814494C
:100DE000206E00F0F3F80021206E00F005F91149A3
:100DF000606C00F0EBF80021606C00F0FDF80E4D27
:100E0000606C294600F09EF900280BD02946606CE2
:100E100000F0DCF8B4F856202046A16DBDE8704023
:100E200000F0C6BC70BD0000F808002000200022C1
:100E300000800028082000102080001070B50E4CA3
:100E40000E49D4F88C00683400F0C0F80C4D606A8C
:100E5000294600F077F900280DD02946606A00F095
:100E6000B5F804F1D0004268002A04D0A18EA06B2E
:100E7000BDE87040104770BD4410002000220020E3
:100E80000088002070B50C4C0C49D4F8A8006834D8
:100E900000F09CF80A4D206C294600F053F9002818
:100EA00009D02946206C00F091F8206CBDE8704014
:100EB000002100F0A1B870BD4410002000200820DF
:100EC0000080202070B50E4C0E49D4F8F400D034C8
:100ED00000F07CF80C4D606A294600F033F90028D8
:100EE0000DD02946606A00F071F804F1680082684C
:100EF000002A04D0A18EA06BBDE87040104770BDE1
:100F000044100020002200100088001070B50D4C25
:100F10000D49606A00F05AF80C4D606A294600F0ED
:100F200011F900280DD02946606A00F04FF804F549
:100F30009C700268002A04D0A18EA06BBDE87040AE
:100F4000104770BD441000200020081000802010C1
:100F500070B50C4C0C49D4F81001D03400F036F8C0
:100F60000A4D206C294600F0EDF8002809D02946EA
:100F7000206C00F02BF8206CBDE87040002100F0E0
:100F80003BB870BD441000200020082000802020C5
:100F900070B50B4C0B49206C00F018F80A4D206C12
:100FA000294600F0CFF8002809D02946206C00F02F
:100FB0000DF8206CBDE87040002100F01DB870BD38
:100FC000441000200020002200800028074A9042A0
:100FD00001D2074801E005481038064A8B0001EAB3
:100FE000020101D5C1607047816070471064024002
:100FF000006002407D0F7D0F0029016802D041F0A2
:10100000010101E021F00101016070472DE9F04389
:10101000016821F0010101600021016041608160EF
:10102000C1600161212141613C493C4A3D251039A3
:10103000904202D18D60BDE8F083384A4FF4746667
:101040001832904201D18E60F5E7344A4FF474179C
:101050003032904201D18F60EDE7304A4FF0746C2E
:101060004832904202D1C1F808C0E4E72B4B2C4A29
:101070006033984201D1CA60DDE7284C294B7834AF
:10108000A04201D1CB60D6E7DFF89080264C08F172
:101090009008404501D1CC60CDE7DFF880804FF06B
:1010A0003D5908F1A808404502D1C1F80C90C2E7AB
:1010B0001E49DFF878800839404501D10D60BAE754
:1010C0001A4D1835A84201D10E60B4E7174D3035DE
:1010D000A84201D10F60AEE7144D4835A84202D1B5
:1010E000C1F800C0A7E7114D10496035091FA8429B
:1010F00001D10A609FE70D4A7832904201D10B601E
:1011000099E70A4A9032904201D10C6093E7074A6E
:10111000A83290428FD1C1F800908CE71060024055
:101120003D000020400F002000003D2010640240E0
:10113000014600200968C90700D0012070474068B7
:1011400080B2704730B5104A0024904201D20F4B54
:1011500001E00D4B103B0E4A114205D01E2202EA5F
:10116000D12502682A4002E0406900F08002880030
:1011700001D5586800E01868064B1840084201D0B5
:1011800002B10124204630BD1064024000600240DC
:101190003C0F3C0F7D0F7D0F0B0607D5436912B145
:1011A00043F0800301E023F080034361802908D0ED
:1011B000002A026801F01E0101D00A4300E08A43C0
:1011C0000260704730B50368124ACC6813400A6861
:1011D0002243D1E905452C432243CC6922430C6AC2
:1011E00022434C6A22438C6A22434C6B22438C6B11
:1011F00022431A430260426922F00703D1E90B241B
:1012000022431A4342610A6942604A6882608968DF
:10121000C16030BD3F801CF041607047002101601B
:1012200041608160C160016141618161C1610162B0
:1012300041628162C16201634163816370477047AB
:1012400070B50546032830D205EB8500174900EB41
:10125000C50001EBC00440F224463146206801F08D
:101260000FFD002821D0206801888188314601F0D7
:1012700098FC0021606AFFF7BFFE606AFFF75FFF1E
:10128000A18E081A0104090C05D0094850F8252040
:101290000AB1A06B9047A18E606AFFF7BDFF606A3C
:1012A000BDE870400121FFF7A7BE70BD44100020CB
:1012B0007C1100202DE9F05F5FEA00087C484FF0C8
:1012C000100C4FF001024FF0020A4FF040094FF0AE
:1012D000060B4FF007034FF080044FF480064FF0E9
:1012E000006E55D004250827B8F1010F7DD0B8F164
:1012F000020F7BD1DFF8BCC1C0F8D0C084464FF0EC
:1013000020080CF1D000CCF82C814FF0470C80F86D
:1013100064C0016680F8672080F8655080F8662018
:101320006549C0E90515A0F81C90A0F81EB080F82A
:101330002070C0E901158481C38107744FF02063D8
:101340005E498364C0E910165D4941655102A0F809
:10135000501080F85820452480F84C40574C80F8B5
:101360004D5080F84E20783C4462C0E90A63554BEA
:101370008363818680F83C20392180F8301080F822
:10138000315000BF80F83220BDE8F05FFFF710BA9F
:101390004D4DC0F85CC00560252580F8645001669D
:1013A00080F8672080F865A080F86620474DC0E986
:1013B000055AA0F81C90A0F81EB080F82030C0E9B3
:1013C000015A8481C38103743C4B414D1833C0E9F9
:1013D0001036C0F848E04565A0F8504080F8582025
:1013E0004625514680F84C5001E016E05EE080F85A
:1013F0004D10324980F84E206039C0F82CE0C0E929
:101400000916334980398163848680F83C203A216B
:1014100080F8301080F83120B4E72E4E8666244ED6
:101420004FF4003806F16800C6F8C480262680F81C
:101430006460016680F8672080F86520264E80F899
:1014400066A0C0E905628583A0F81EA080F8203060
:10145000C0E9016287810325C581037436011F4BF2
:10146000C0E91036174FC0F848E0803F4765A0F844
:10147000504080F85820112780F84C7080F84D209B
:1014800080F84E208662154E114B183EC0F82CE0B5
:10149000803346628363848680F83C2080F830C0C5
:1014A000514680F8315080F832106DE7BDE8F09F6A
:1014B000441000200014014000080240A0640240D3
:1014C000440E0020440C00200010014000040240A3
:1014D000C40A00200044004000000240A060024016
:1014E000002902D0014A42F8201070477C110020E8
:1014F00070B515460E4603281ED200EB800101EBA5
:10150000C0000E4901EBC004B4F85000A84213D348
:10151000206CFFF70DFE00280ED12A463146606D83
:10152000FEF7A2FE2946206CFFF776FE206CBDE890
:1015300070400121FFF760BD70BD00004410002025
:1015400030B428492848CC130022C46701602749D9
:1015500080F883200423C0E901138481C0E90513C6
:101560000C1584830A24C483062480F82040C0E933
:101570000913CD1485850B25C58580F83040C0E959
:101580000D13891481870C21C18780F84040DB044A
:1015900017498266C0E918132F2180F86C10A0F15A
:1015A000400141672024A0F8704080F87820012194
:1015B00080F86D1080F86E1083640D4BA83B436477
:1015C000C26480F85050A0F120028265A0F8544017
:1015D00080F85C1080F8511080F8521030BC00F098
:1015E00049B80000003C0040F80800200008024014
:1015F000B8600240002802D1014800F046B87047A8
:10160000F8080020002804D1002902D00148C0F8C1
:10161000A4107047F80800201CB50121084600F00E
:101620000FFE4FF48060009001208DF8040000212F
:101630008DF8061002218DF805108DF80700694617
:10164000024800F0EFF900F003F81CBD0000024072
:1016500000224FF48061014800F052BA00000240BD
:101660004FF48061014800F047BA000000000240DA
:10167000FFF741B810B50446FFF72EF82046FFF7F4
:101680003AF8002084F8840010BD90F884100929ED
:1016900034D2DFE801F005070D13191F252C2F00A8
:1016A000012118E0022180F8841000226B211CE047
:1016B000032180F8841000221A2116E0042180F80A
:1016C00084100022192110E0052180F884101822CE
:1016D0001B210AE0062180F8841018221C2104E056
:1016E000072180F8841008221D2100F039B8032258
:1016F0001C2101E00F223B2100F004B8002180F8FA
:101700008410704770B50446B0F8700015460E4658
:10171000A84224D3606CFFF70BFD00281FD12046A0
:10172000FEF7EDFF54F8B40F401C44F8700946F082
:101730008000216B0870E585658229462068FFF7E7
:101740006BFD01212068FFF757FCE18DE069FFF791
:1017500063FDE069BDE870400121FFF74DBC70BD3D
:1017600070B5044615460E46406CFFF7E1FC0028B4
:101770001CD12046FEF7C3FF54F8740F02210670F7
:1017800054F830094570E18561822068FFF744FD17
:1017900001212068FFF730FCE18DE069FFF73CFD97
:1017A000E069BDE870400121FFF726BC70BD000074
:1017B0000023002817D00F2A16D0032A13D1497806
:1017C00018297CD0D0F8AC10491CC0F8AC10032903
:1017D00009D3C0F8A830C0F8AC3050F8B01F491C8D
:1017E00040F82C19037070474A788B78120212B2B5
:1017F0001A4300EE102ADFED3E1AF8EEC00A9FED04
:101800003B0A60EE800AC0ED220ACA780B79120208
:1018100012B21A4300EE902AF8EEE00A60EE800A57
:10182000C0ED230A4A798B79120212B21A4300EEF4
:10183000902AF8EEE00A20EE800AF3EE050A80ED29
:10184000240ACA790B7A120212B21A4300EE102A45
:10185000B8EEC00A30EE601A81EE210A30EE200A9E
:1018600080ED280A4A7A8B7A120212B21A4300EEED
:10187000102AF8EEC00A9FED1F0A80EE801A80ED54
:10188000251ACA7A0B7B120212B21A4300EE902A72
:10189000F8EEE00A80EE801A80ED261A4A7B897BFA
:1018A000120212B20A4300EE902AF8EEE00A80EE2D
:1018B000801A80ED271AD0F8A810491C00E007E034
:1018C000C0F8A810D0F8A41000298CD088300847A0
:1018D000D0F8A810491CC0F8A810022983D3082109
:1018E000C0F8A83080F88410704700000000003A6B
:1018F0005CEFA6433333834170B500230122F8B176
:1019000002250426012822D002282CD0032836D113
:101910001B4800F1600480F871201A4820600820FC
:1019200060603220A0730320E07322742276637615
:10193000204600F041F82046BDE87040FEF7E4BEC6
:101940000F4C4FF080406374C4E90002F0E70C488C
:1019500000F1200480F831200B48C4E900051D2067
:10196000A073E673E1E7064800F1400480F85120D7
:101970000648C4E900061E20A073E573D5E770BDD4
:10198000C4090020000C0040000400400008004092
:10199000084A10B502EB41135A7E1C7EA24207D2C0
:1019A000044C103C04EB81019400521C5A760851FF
:1019B00010BD0000C4090020074A1368074A4161AE
:1019C000B3FBF2F2521E92B28281521C4A43B3FB25
:1019D000F2F1491E816070472800002040420F004C
:1019E00000B5F0EE401A00F003F820EE210A00BD29
:1019F00010EE100A9FED091A0749A1EB500020EEE6
:101A0000010A00EE900A20EE201A9FED050A01EE71
:101A1000600A20EE200A704712141F5F12D3363F6F
:101A2000FF51D83FF0B50023012403270D6804FAC5
:101A300003F21540954242D1D0F800C05E0007FA8B
:101A400006F52CEA050CC0F800C091F804C0D0F8E7
:101A500000E00CFA06FC4CEA0E0CC0F800C091F84D
:101A600004C0BCF1010F02D0BCF1020F1FD1D0F8AD
:101A700008C02CEA050CC0F808C091F805C0D0F8E1
:101A800008E00CFA06FC4CEA0E0CC0F808C0D0F8CE
:101A900004C02CEA020CC0F804C0426891F806C0E9
:101AA0000CFA03FC1FFA8CFC42EA0C024260C2688A
:101AB000AA43C260CA79C568B2402A43C2605B1CAF
:101AC000102BB3D3F0BD4B07DB0E9A40C90810B5FD
:101AD00000EB8100016A0F249C40A1430162016A6E
:101AE0001143016210BD4FF6FF71016000210171C9
:101AF00041718171C171704742694A4042617047CA
:101B00000AB10183704741837047034610B5002036
:101B1000024603E09C5C521C2044C0B28A42F9D3C6
:101B200010BDFEE7334990ED002A81ED002A90EDCB
:101B3000011AB1EE422A81ED011A90ED020A81EDFF
:101B4000020AD0ED032AC1ED032AD0ED041AF1EE0A
:101B5000622AC1ED041AD0ED050AC1ED050A90ED27
:101B6000063A01F1340081ED063A80ED001A80ED6D
:101B7000012A80ED020AC0ED031AC0ED042A1C31CF
:101B8000C0ED050A91ED003A00F5866031EE433A6A
:101B90009FED191A23EE013A80ED923A91ED013A48
:101BA00032EE432A22EE012A80ED932A91ED022A99
:101BB00030EE420A20EE010A80ED940A91ED030A0C
:101BC00031EEC01A9FED0D0A21EE001A80ED951A34
:101BD00091ED041A32EEC11A21EE001A80ED961A28
:101BE00091ED051A70EEC10A20EE800A80ED970A89
:101BF0007047000084010020CDCC1C4135FA8E3C9A
:101C000010EE101A0A0E02700A0C42700A0A827054
:101C1000C17070472DE9F04F91B08246DFED890A1F
:101C20004FF0000B13460846B7EE001AB0EE600AFC
:101C300012E00C1A03E000BFA3EC010A641E002CA2
:101C4000FAD1A3EC011A441E03E000BFA3EC010A81
:101C5000641E002CFAD1401E0028EAD189464FF0BC
:101C6000FF3EDEE000FB01F40AEB840302EB840696
:101C7000CDE906365546D3ED001AF0EE400A04468B
:101C800013E000BF93ED001AB5EEC01AF1EE10FAA2
:101C900001DCB1EE411AB4EEE01AF1EE10FA01DD0A
:101CA000F0EE410A03EB8103641C8C42EAD3F5EEAB
:101CB000C00AF1EE10FA6ED0F5EEC01A2C46F1EE25
:101CC00010FA4FF0010C02DDB0EE611A01E0B1EE46
:101CD000611AB4EE601AF1EE10FA40D0A1EB0008E0
:101CE00001FB00F5A8F1010304EB850535E000BF19
:101CF00095ED001A01FB0CF706EB8707B5EEC01A4D
:101D0000F1EE10FA01DCB1EE411AB4EE601AF1EE18
:101D100010FA0BD01EE000BFD5ED000A94ED001ABA
:101D2000A8F10108A5EC011AE4EC010AB8F1000FD2
:101D3000F2D10B4609E000BFD7ED000A96ED001A7C
:101D40005B1EA7EC011AE6EC010A002BF4D14FF060
:101D5000010B0CE05B1E0CF1010C002BC8D1BBF198
:101D6000010F04D0F5EEC01AF1EE10FA66D0069B12
:101D7000079C0E931094D3ED000A0D1A019506E00E
:101D800093ED001A6D1EC1EE201AE3EC011A002D2E
:101D9000F6D10B4607E051E094ED001A5B1EC1EE50
:101DA000201AE4EC011A002BF6D1534614464FF0EA
:101DB00000088C462DE0804505D1019D04EB81048F
:101DC00003EB85031FE0D3ED000A0E9F109E019DDB
:101DD00009E000BFF7EC011A93ED001A6D1E00EE4A
:101DE000E11AA3EC011A002DF4D10D4609E000BF61
:101DF000F6EC011A94ED001A6D1E00EEE11AA4EC47
:101E0000011A002DF4D103EB800308F10108ACF1B5
:101E1000010CBCF1000FCED10AF1040AA9F10109AD
:101E2000401CB9F1000F7FF41DAF0020BBF1010F82
:101E300005D0F5EEC00AF1EE10FA00D1704611B0EF
:101E4000BDE8F08F000000002DE9F04F91469B4661
:101E5000DDE90932DFED2F0A924600278E464FEA70
:101E6000990800BF0AEB870C1D4659465FF0000633
:101E7000B0EE600A0246444623E000BFD1ED001AEE
:101E800092ED002A01EB830192ED011A02EE210A84
:101E9000D1ED001A01EB830192ED022A641EA4B277
:101EA00001EE210AD1ED001A01EB830192ED031A34
:101EB000103202EE210AD1ED001A01EB830101EE8E
:101EC000210A002CDAD109F0030409E0B2EC011A6E
:101ED000D1ED001A641E01EB8301A4B201EE210AC8
:101EE000002CF3D1761C6D1EB6B22D04ACEC010AA9
:101EF0000BEB86012D0CBBD1F9188FB2AEF10101AD
:101F000089B200EB89005FEA010EABD10020BDE889
:101F1000F08F0000000000002DE9F0439946DDE954
:101F200007854FF0000C1EE04C4600279FED100A7D
:101F300013E0034685ED000A00260AE0B3EC011A1F
:101F4000D5ED000A761CF4EC011A41EE210AC5ED2C
:101F5000000A9642F2DB2D1D7F1C4745E9DB00EBB2
:101F600082000CF1010C8C45DEDBBDE8F083000043
:101F70000000000010B551438A08029C22E000BF17
:101F800090ED001A93ED000AD0ED010AD3ED011A8D
:101F900031EE000A90ED021A70EEA10AD3ED021A9A
:101FA000521E84EC020A31EE211A90ED030AD3EDA1
:101FB000030A84ED021A103030EE200A103384ED4B
:101FC000030A1034002ADBD101F0030109E000BF4D
:101FD000B0EC010A491EF3EC010A30EE200AA4EC31
:101FE000010A0029F4D1002010BDFEE7704700006F
:101FF00030B50F22C47801780123FCB1144C246859
:1020000001F1E02104F4E064C4F5E064C4F30724C2
:10201000C4F10405E2404478AC408578154025437E
:102020002A0181F80024007800F01F018B4040094C
:10203000800000F1E020C0F8003130BD01F01F0049
:1020400083404809800000F1E020C0F8803130BDB5
:102050000CED00E0024908430249086070470000A7
:102060000000FA050CED00E0014800F0F5BF0000AB
:1020700088110020704790ED020AF7EE000A20EE6A
:10208000001A90ED030AF0EE601A00EE001AB0EEAE
:10209000000A41EE401AC1ED001A90ED011AD0ED90
:1020A000021A90ED032A21EE211AD0ED001A01EE5A
:1020B000C21A21EE001A81ED011A90ED011AD0ED3D
:1020C000031A90ED022A21EE211AD0ED001A01EE3A
:1020D000821A21EE001A81ED021A90ED011AD0ED5C
:1020E000021A90ED032A21EE211AD0ED001A01EE1A
:1020F000821A21EE001A81ED031A90ED011A61EEA9
:10210000011A90ED031A41EE011AB0EE601A01EEC9
:10211000C01A81ED041A90ED021AD0ED031A21EED7
:10212000211AD0EC021A01EEC21A21EE001A81ED3A
:10213000051A90ED011AD0ED031A90ED022A21EE56
:10214000211AD0ED001A01EEC21A21EE001A81ED1B
:10215000061A90ED021AD0ED031A21EE211AD0ECE6
:10216000021A01EE821A21EE001A81ED071A90ED93
:10217000011A61EE011A90ED021A41EE011A41EEC8
:10218000C00AC1ED080A704710B58AB00C46DFEDF1
:10219000282A6946FFF76FFF9DED060AF7EE000A51
:1021A00040EE400AB0EEE00AFFF71AFC10EE100A0B
:1021B0002049884216DA9DED060AB5EEC00AF1EE16
:1021C00010FA02D29FED1C0A06E0B5EEC00AF1EE4D
:1021D00010FA04DD9FED190A84ED000A15E0C4ED44
:1021E000002A12E0DDED060AB1EE601AC1EE000A27
:1021F00010EE900A02F0C8FD41EC100B01F0C0FB9C
:1022000051EC100B02F09AF92060DDED080A9DED0B
:10221000070A01F0B1FD84ED010ADDED000A9DED34
:10222000030A01F0A9FD84ED020A0AB010BD000006
:1022300000000000BD378635DB0FC93FDB0FC9BF8B
:10224000044A0029116801D0014300E08143116074
:102250007047000030380240044A0029116801D05C
:10226000014300E0814311607047000040380240A4
:10227000044A0029116801D0014300E08143116044
:102280007047000020380240044A0029116801D03C
:10229000014300E081431160704700004438024070
:1022A000044A0029116801D0014300E08143116014
:1022B000704700002438024070B5204A1168204C55
:1022C00011F00C0104D06610042903D0082903D0B2
:1022D00004601BE0066019E01849091F0B68C3F38E
:1022E00080550B6803F03F0315B1B6FBF3F301E033
:1022F000B4FBF3F30C680968C4F388146343C1F3B7
:102300000141491C4900B3FBF1F1016011680F2341
:1023100003EA11110B4B5C5C0168E14041601468F9
:10232000072505EA94241C5D21FA04F484601268F0
:1023300005EA52329A5CD140C16070BD0838024053
:102340000024F400180000200029018802D041F088
:10235000400101E021F040010180704710B50446C2
:102360000068214986B08842E06F4FF0010102D138
:10237000FFF78AFF01E0FFF76FFF206800F0F6F833
:102380000020ADF800004FF48271ADF80210ADF8F6
:1023900004000221ADF806100121ADF80810490231
:1023A000ADF80A101021ADF80C10ADF80E000720A2
:1023B000ADF810006946206800F026F901220221DC
:1023C000206800F0CAF801221146206800F0C5F824
:1023D00001212068FFF7B8FF01226021206800F08A
:1023E00007F906B010BD00000030014070B504468A
:1023F00090B0406E0121FFF723FF0121A06CFFF791
:102400001FFF206EFEF702FE6846FEF707FFA06E74
:102410000090206800250C300190606F02904020F1
:10242000CDE903050601CDE905560795C0020895DB
:10243000CDE909506946206EFEF7C4FE0021206EEA
:10244000FEF7DAFD606CFEF7E1FD6846FEF7E6FE9A
:10245000E06C0090206804A90C300190A06DCDE9DB
:102460000205B4F8540081E8610007954FF440304C
:102470000895CDE909506946606CFEF7A3FE01227C
:102480001021606CFEF788FE0021606CFEF7B4FD41
:1024900010B070BD7CB5044680680121FFF7D0FE06
:1024A0000121A069FFF7CCFE0121A06AFFF7C8FE59
:1024B0000121A06BFFF7C4FE94F82020E18B606936
:1024C000FFF701FB94F83020E18D606AFFF7FBFA1B
:1024D00094F84020E18F606BFFF7F5FA6846FFF74C
:1024E00002FBA089009001208DF8040000258DF8E2
:1024F000065002268DF805608DF807006946606871
:10250000FFF790FAA08B8DF804608DF806508DF8D7
:10251000056000908DF8075069466069FFF782FA00
:10252000A08D8DF804608DF806508DF80560009040
:102530008DF807506946606AFFF774FAA08F8DF82E
:1025400004608DF806508DF8056000908DF80750F6
:102550006946606BFFF766FA7CBD002A828801D06D
:102560000A4300E08A438280704700001A4910B590
:10257000884202D10121841424E01849884202D102
:102580000121041404E0164988420AD10121C41330
:102590002046FFF76DFE2046BDE810400021FFF702
:1025A00067BE1049884202D1012144140AE00E4955
:1025B000884202D101210C0504E00C4988420AD16D
:1025C00001214C052046FFF76BFE2046BDE8104078
:1025D0000021FFF765BE10BD00300140003800400B
:1025E000003C0040003401400050014000540140D4
:1025F000090901238B40002A828899B201D00A433D
:1026000000E08A438280704730B502884C8802F42B
:1026100041530A88CD8822438C882C4322430C895D
:1026200022434C8922438C892243CC8922431A437A
:102630000280828B22F400628283098A018230BD8B
:10264000F8B5044690F878000125AE02012813D1B0
:102650003046FFF7FFFC94F86C008DF8000094F80A
:102660006D008DF8010094F86E008DF802008DF871
:1026700003506846FFF7BCFC94F85C00012813D1B6
:102680003046FFF7E7FC94F850008DF8000094F80E
:1026900051008DF8010094F852008DF802008DF879
:1026A00003506846FFF7A4FC94F88300012811D179
:1026B0003046FFF7CFFC14F8800F8DF800006078EB
:1026C0008DF80100A0788DF802008DF8035068465F
:1026D000FFF78EFCF8BD70470CB50020264901902D
:1026E00000900A6842F480320A604FF4A0430A68FE
:1026F00002F400320092019A521C0192009A12B91F
:10270000019A9A42F3D10A68920332D501200090CF
:1027100019484030026842F080520260174802684F
:1027200042F44042026014480830026802600268C5
:102730000260026842F480520260031F104A1A606D
:102740000A6842F080720A600A689201FCD50D4A5C
:1027500040F202711160016821F00301016001681B
:1027600041F0020101600168C1F381010229FAD13F
:102770000CBD00900CBD000000380240007000400D
:1027800008544107003C024001F0C4BE124810B595
:10279000016841F4700101601048016841F00101D5
:1027A00001600E4A00210832116002680C4B1A4089
:1027B0000260031D0B4A1A60026822F48022026044
:1027C00006480C300160FFF787FF03494FF00060B7
:1027D0008039086010BD000088ED00E0003802403C
:1027E000FFFFF6FE1030002410B5084C01212046F2
:1027F00000F043F8002808D00121204600F030F80E
:10280000BDE81040012000F08BB810BD000400406E
:1028100010B5084C0121204600F02FF8002808D000
:102820000121204600F01CF8BDE81040022000F015
:1028300077B810BD0008004010B5084C01212046B3
:1028400000F01BF8002808D00121204600F008F80D
:10285000BDE81040032000F063B810BD000C00403C
:10286000C943018270470029018802D041F001016B
:1028700001E021F001010180704702460020138A27
:1028800092890B4202EA010202D0002A00D0012004
:102890007047002A828901D00A4300E08A4382817E
:1028A0007047000030B50288164B174C98420DD087
:1028B000A0420BD0B0F1804F08D0144DA84205D0F3
:1028C000134DA84202D0134DA84203D122F0700547
:1028D0004A882A43104DA84206D0104DA84203D082
:1028E00022F440750A892A4302804A68C2620A8833
:1028F0000285984201D0A04201D1897A0186012146
:10290000818230BD0000014000040140000400400D
:1029100000080040000C004000100040001400407F
:102920002DE9F04100250446042811D2094800F1A0
:10293000100100EB840701EB441606E057F8252050
:1029400012B12046716990476D1C707EA842F5DC7B
:10295000BDE8F081B40900201FB5044600681E4997
:10296000884202D01D49884204D10121E06DFFF761
:102970008BFC03E00121E06DFFF76EFC206800F0A6
:1029800029F9206E00900020ADF80400ADF8060093
:10299000ADF80800ADF80C000C20ADF80A0069464F
:1029A000206800F0A5F9012240F22441206800F0DF
:1029B00086F901228021206800F003F901224021DC
:1029C000206800F0FEF80121206800F0F0F84021B6
:1029D000206800F0E3F81FBD001001400014014022
:1029E00070B5044690B0406C0121FFF729FC01212D
:1029F000A06AFFF725FC206CFEF708FB6846FEF78F
:102A00000DFCA06C009020680025001D0190606DF9
:102A100002904020CDE903050601CDE90556079552
:102A2000C0020895CDE909506946206CFEF7CAFB43
:102A300001221021206CFEF7AFFB0021206CFEF775
:102A4000DBFA606AFEF7E2FA6846FEF7E7FBE06A47
:102A50000090206804A9001D0190A06BCDE902053B
:102A6000A08E81E86100B010CDE908504FF44030ED
:102A700007950A906946606AFEF7A4FB0121606A27
:102A8000FEF7BAFA10B070BD2DE9FC41044680692A
:102A90000121FFF7D5FB0121A068FFF7D1FB94F8D6
:102AA0002020E18B6069FFF70EF8227CE1896068E5
:102AB000FFF709F86846FFF716F8A08B02258DF896
:102AC000045003268DF80560012700908DF80770EB
:102AD00069466069FEF7A6FFA0898DF804508DF85D
:102AE000056000908DF8077069466068FEF79AFFF0
:102AF000BDE8FC81F8B5044690F858000125AE0207
:102B0000012813D13046FFF7A5FA94F84C008DF850
:102B1000000094F84D008DF8010094F84E008DF8F7
:102B200002008DF803506846FFF762FA94F83C0003
:102B3000012813D13046FFF78DFA94F830008DF854
:102B4000000094F831008DF8010094F832008DF8FF
:102B500002008DF803506846FFF74AFA94F86700C0
:102B6000012811D13046FFF775FA14F8640F8DF87B
:102B7000000060788DF80100A0788DF802008DF8D3
:102B800003506846FFF734FAF8BD0020FEF758BB43
:102B90000120FEF755BB0220FEF752BBC94301805E
:102BA00070470A0A01219140C943018070470029FA
:102BB000818902D041F4005101E021F4005181816A
:102BC0007047002A828A01D00A4300E08A43828249
:102BD00070470000224910B5884206D1012110201B
:102BE000FFF75EFB0021102020E01E49884202D141
:102BF00001214C0429E01C49884202D101218C04A6
:102C000023E01A49884202D10121CC041DE0184971
:102C1000884202D101210C0517E01649884209D1EA
:102C200001212020FFF73CFB00212020BDE81040BF
:102C3000FFF736BB1049884202D101218C0704E01E
:102C40000E4988420AD1012144052046FFF710FBB6
:102C50002046BDE810400021FFF70ABB10BD000070
:102C6000001001400044004000480040004C00407B
:102C7000005000400014014000780040007C0040FB
:102C800030B501F01F0201240025C1F3421304FAFC
:102C900002F2012B0FD0022B0FD0838A4FEA1121B1
:102CA0000088134204FA01F400EA040001D000B1E4
:102CB0000125284630BD8389F0E7038AEEE710B589
:102CC000C1F3421301F01F040121A140012B07D0E1
:102CD000022B07D01430002A026805D00A4304E012
:102CE0000C30F8E71030F6E78A43026010BD0000B0
:102CF0007FB50446008A0D4620F44051E888084319
:102D00002082A08941F20C618843A9882A89114355
:102D10006A8902431143A181A08A20F44071A889E5
:102D20000843A0826846FFF7C7FA1A48844202D0D7
:102D30001948844201D1039800E00298A18909044E
:102D400000EBC00101EB0010296801D5490000E04B
:102D50008900B0FBF1F26420B2FBF0F109010B092C
:102D60006FF018056B4302EB8302A3891D044FF03B
:102D7000320306D503EBC202B2FBF0F000F007000D
:102D800005E003EB0212B2FBF0F000F00F00084385
:102D900020817FBD001001400014014010B5D0F823
:102DA000E42552689047002010BD10B5134600245A
:102DB0000A462146FDF746FD204610BD10B51346D4
:102DC00000240A462146FDF783FD204610BD10B5BC
:102DD00004468021FDF760FD00212046FDF75CFDE3
:102DE0002046BDE8104000F03DBC70B5054600240B
:102DF000052085F811012346224621462846FDF785
:102E000021FD284600F02EFC204670BD10B5C0F80C
:102E10003C210223C0F8382180F8113113460024E8
:102E20000A462146FDF754FD204610BD70B5054603
:102E30000024042085F81101234622462146284615
:102E4000FDF746FD284600F00DFC204670BD000051
:102E500070B5054641B1D5F8E4054269BAB395F8B5
:102E6000120103284CD04DE095F81101002605F51C
:102E70008E74022839D1E169A06881420FD9081AFD
:102E8000E061E878012803D1D4E902100844E06049
:102E9000A08BE16882B22846FFF790FF10E0216A1C
:102EA000B1FBF0F200FB121292B9814210D3606ABA
:102EB00081420DD2002211462846FFF77FFF66624D
:102EC00000231A4619462846FDF7BCFC0DE016E023
:102ED000D5F8E405C16829B195F81201032801D19C
:102EE000284688472846FFF780FF95F816010128F5
:102EF00008D1054800682969486085F8166101E035
:102F000028469047002070BD7000002070B505462F
:102F100041B1D5F8E40582690AB395F81201032896
:102F20002CD02DE095F8110105F55D74032827D10B
:102F3000E169A068814213D9081AE061E8780128A4
:102F400003D1D4E902100844E060E169A06881423D
:102F500000D2084682B22846E168FFF726FF0FE05C
:102F6000D5F8E405016929B195F81201032801D1CA
:102F7000284688472846FFF759FF01E02846904732
:102F8000002070BD38B50446C888ADF800004888F8
:102F90000D46010A04294CD2DFE801F04B02071369
:102FA000D4F8EC15A0780A6830E0D4F8E415A078DD
:102FB0008A6A69469047014602204870C4F8F015B5
:102FC00027E0C0B2062834D2DFE800F003080D1273
:102FD000171CD4F8EC15A0784A6817E0D4F8EC1563
:102FE000A0788A6812E0D4F8EC15A078CA680DE0E1
:102FF000D4F8EC15A0780A6908E0D4F8EC15A078AC
:103000004A6903E0D4F8EC15A0788A6969469047CC
:103010000146BDF8000000280AD0EA88002A07D03F
:10302000824200D90246ADF800202046FFF7EEFEAE
:1030300038BD29462046FFF7CAFE38BD10B5D0F886
:10304000E415096A8847002010BD10B5D0F8E415D2
:10305000496A8847002010BD2DE9F041054600244B
:1030600000F02FFC00286AD0284600F033FC060050
:1030700066D0300303D52846FDF750FD04467003A3
:1030800003D52846FDF7EAFC0443B00702D5E968FA
:10309000022048612B4F002E16DAA87A28B1D5F805
:1030A0000C01016821F0030101602869416821F0E9
:1030B000010141603868816928468847E9684FF016
:1030C0000040486144F00104300503D52846FDF76F
:1030D000B9FD0443300708D53868C16828468847D9
:1030E000E9680820486144F00104F00603D5284649
:1030F000FDF76AFD0443F00403D52846FDF7DAFD29
:103100000443B00403D52846FDF702FC0443F00253
:1031100009D53868C16928468847E9684FF48010A6
:10312000486144F00104B00209D53868016A2846B4
:103130008847E9684FF40010486144F001042046D4
:10314000BDE8F0816C00002090F8CC250A7090F862
:10315000CD254A7090F8CE2590F8CF3502EB0322AA
:103160004A8090F8D02590F8D13502EB03228A806E
:1031700090F8D22590F8D33502EB032292B2CA80A0
:103180000121C0F8402180F81111704710B50023CB
:10319000044640221946FDF737FB002340228021D8
:1031A0002046FDF731FB012084F81201D4F8E81520
:1031B000A07849688847002010BD10B50446D0F8B3
:1031C000E80500698047032084F81201002010BD43
:1031D00010B5D0F8E415C96901B18847002010BDC9
:1031E00010B50446D0F8E405026820469047D4F8AC
:1031F000E80580688047002010BD000070B50A46D1
:103200001A4D897804462970012905D894F81201CD
:10321000022807D003280CD02046BDE87040114694
:10322000FFF7D5BDA1B184F81011032084F8120175
:103230000BE091B194F81001884209D00146204674
:10324000FFF7ACFD297884F810112046FFF7C8FF7E
:103250002046BDE87040FFF7E9BD022084F8120166
:1032600084F810112046FFF799FDF1E77400002063
:1032700010B504464888012201280FD0022831D118
:10328000888810F0FF0F2DD121694968000A0628AF
:103290001CD2DFE800F01B1B0B0F1317C4F818211A
:1032A000D4F8E40582682046904716E021F07001CA
:1032B00020310EE021F0700130310AE021F0700180
:1032C000403106E021F07001503102E021F0700140
:1032D00010310548016084F816212046BDE81040F1
:1032E000FFF7A4BD10BD0000700000201CB504460F
:1032F0006946FFF729FF9DF8001011F01F000AD062
:1033000001280DD0022810D001F080012046FDF7E1
:10331000C3FA00201CBD6946204600F00BF8F8E710
:103320006946204600F0F6F8F3E76946204600F0CB
:1033300079F8EEE72DE9F0414A78002701260A2ABC
:1033400042D2DFE802F03B554152410805412A27AD
:10335000FFF718FE61E004468888C8B9C888B8B984
:10336000887800F07F0594F81201032810D084F8C3
:10337000145129462046FDF787FA2046FFF756FDEF
:103380001DB1022084F8120147E084F8126144E084
:10339000204619E0FFF732FF3FE0CA88012A13D127
:1033A00090F81221022A02D0032A0DD102E0012254
:1033B0001B4917E0012200F5887113E090F81221F3
:1033C000022A04D0032A02D0FFF701FD25E01449A8
:1033D0000839CE60D0F818210AB10322CA6010491A
:1033E0000222091DFFF712FD17E0FFF741FF14E06D
:1033F000044690F81201022801D00328C8D1488859
:1034000001280AD10020C4F81801D4F8E405826824
:10341000204690472046FFF709FD3846BDE8F08179
:103420007C00002070B50D460446287800260979F6
:10343000C0F34110012806D0687878B301281ED067
:1034400003283AD106E0D4F8E405294682682046EC
:10345000904732E094F81201022830D0032828D196
:10346000688828B921B1802902D02046FDF714FAD6
:10347000D4F8E40529468268204690470FE094F886
:10348000120102281BD0032813D16888A8B931B1D2
:10349000802904D02046FDF79BF9E9E703E02046A8
:1034A000FFF7C4FC09E094F81201022807D00328B2
:1034B0000DD029462046FFF78AFC304670BD002912
:1034C000FBD08029F9D02046FDF7E6F9F5E7104852
:1034D0000D064FF000034FF0010208D501F07F0107
:1034E00001EB810104EBC10191F81E1105E001EB34
:1034F000810104EBC10191F8761309B1426000E04B
:10350000436003490222091D2046FFF77FFCD4E7F0
:103510007400002070B5054690F8120100260C4694
:1035200003280DD1207901280AD8D5F8E40582684E
:1035300028469047E08830B92846FFF777FC02E03C
:103540002846FFF744FC304670BD10B590F81211C4
:1035500080F81311042180F81211D0F8E805C06832
:103560008047002010BDC0EB00100021C0000722E2
:10357000B0FBF2F0491C8142FCD9704710B50169DB
:1035800000238C6882691168C4F341041CB1012CCA
:1035900001D0022C02D06FF30A0102E06FF30A019E
:1035A000C91C11600069416841F48071416018468E
:1035B00010BD0000F0B54A7800264B69012A13D0EF
:1035C0000A7800EB82056A6D14681269BBB38B68D8
:1035D000C1F8143063F306026B6D42F400221A61E5
:1035E000C278012A2ED033E084692768226933B17A
:1035F0008D68AB4206D965F306024D6104E022F006
:103600007F0201E063F3060242F400222261C278E5
:10361000012A05D10B780A6900EB83039B695A6183
:1036200047F004422260C278CAB94A69BAB10A783E
:10363000006901219140426B0A4342630FE0FFE7BA
:103640000B7AC7E70B780A6900EB83035B6D5A615D
:10365000097844F0044200EB8100406D026030467E
:10366000F0BD0000426D07491161C178012908D100
:10367000426D00F2CC515161406D01684FF08021E4
:103680000160704718000860F0B50E7800254F788B
:103690000122B2402B4600EB8604012F19D0646D45
:1036A00062F31F43226816040DD40E8966F30A02E2
:1036B000CE78897966F3934261F3995242F0805152
:1036C00041F4004121600069C1691943C161284684
:1036D000F0BDA46962F30F03E4E710B502464C782D
:1036E0000B78002002EB8302012C09D0526D136885
:1036F000C97823F40013032904D0022902D003E07F
:103700009269F4E743F08053136010BD02464B7892
:103710000978002002EB8101012B05D0496D0A6870
:1037200042F400120A6070478A691168002901DAC0
:1037300041F0804141F4001111607047F0B54A78C2
:103740000D78002401234E6900EB8507012A19D06A
:103750007A6D15681269002E65D08B681E44761E3E
:10376000B6FBF3F666F3DC42C2F3C9465E4366F38A
:103770001202C2F312034B617B6D1A61C278012AF7
:1037800057D05CE0BF693D683A696EB1D1F808C0B6
:1037900066F312026644761EB6FBFCF666F3DC4264
:1037A000CE78012E05D008E06FF3120263F3DC42FD
:1037B00003E022F0C04202F100523A61C278012ACD
:1037C0000ED0CA78012A12D04A69BAB10A78934059
:1037D0000269566B1E435663CA78012A07D00DE072
:1037E0000B780A6900EB83039B695A61F4E702696D
:1037F0009268120AD2070CD045F080550B7845F03C
:10380000044200EB83039B691A60CA78012A03D043
:1038100026E045F00055F1E78A8A93B20A78C96834
:1038200000F081F81CE08E6866F3120263F3DC425C
:10383000A2E70B780A6900EB83035B6D5A61CA78D3
:10384000012A06D14A7912B145F0005501E045F050
:103850008055097845F0044200EB8100406D02601C
:103860002046F0BD38B5002422460094009B43F06A
:1038700020030093009B61F38A1300930099C368AF
:1038800019610749C06803690093521C8A4202D833
:10389000009B9B06F7D40320FFF765FE204638BD4A
:1038A000400D030000698068C0F3410028B1012881
:1038B00001D0022803D00220704703207047012066
:1038C0007047C068406910F0010F01D000207047B8
:1038D00001207047C06841698069084070470069ED
:1038E0008169C069084080B2704700698169C06918
:1038F0000840000C704700EB8101496D8968006940
:10390000406908407047034610B50020D21C920859
:10391000D3F8D03003E01C6841F8044B401C9042BF
:10392000F9D3084610BD30B5C47800256CB900EB5A
:1039300082000024DB1C9B08D0F8D00003E051F883
:10394000042B0260641C9C42F9D3284630BDFEE77C
:1039500003B401984100009850EAC12018BF042028
:103960004A0D18BF40F0010040F2FF72B2EB515F08
:1039700008BF40F00200012808BF052002B07047D0
:1039800070B59D482DED020B2DED068B079D25F0A2
:103990000044A0421DDC9948844202DC0FD1069805
:1039A00068B19DED060B53EC102B51EC100B00F0A1
:1039B000F7FDBDEC068B02B041EC100B70BD002D85
:1039C000CCBF9FED8F0B9FED900BBDEC068B02B033
:1039D00070BD8F48A04215DD8E48A042D8BF4FF081
:1039E000FF3458DD9DED060B51EC100BFFF7B0FFD7
:1039F000042808BF00F0B0F99DED060BBDEC068B66
:103A000002B070BD9DED060B51EC100B00F0FEF9FD
:103A1000CDE9060180489FED828BA0423CDD8248C3
:103A2000A0421FDD00249FED82AB9DED060B53EC01
:103A30001A2B51EC100B00F0B3FD9DED060B41EC81
:103A4000190B53EC1A2B51EC100B00F0A9FF53EC9F
:103A5000182B01F0AFF853EC192B00F049FECDE91B
:103A6000060149E09DED060B012453EC182B51ECA7
:103A7000100B00F095FD9DED060B41EC190B53EC7E
:103A8000182B51EC100B01F095F853EC192B00F0AA
:103A90002FFECDE906012FE06748A0421FDD02247A
:103AA0009FED679B9DED060B53EC192B51EC100B12
:103AB00000F076FF53EC182B00F072FD9DED060B25
:103AC00041EC180B53EC192B51EC100B01F072F870
:103AD00053EC182B00F00CFECDE906010CE09DED37
:103AE000060B032453EC102B9FED570B51EC100BDE
:103AF00000F0FEFDCDE906019DED060B53EC102B09
:103B000051EC100B00F04CFF41EC180B53EC182B50
:103B100000F046FF41EC190B4D480621B0EE490A72
:103B2000F0EE690A784400F09BF853EC182B51EC46
:103B3000100B00F035FF41EC180B4648B0EE490A77
:103B4000F0EE690A0521784400F08AF853EC192B4D
:103B500051EC100B00F024FF41EC100B51EC180B52
:103B600053EC102B002C0EDA00F01AFD9DED061B15
:103B700053EC112B00F014FF9DED061B53EC112BA1
:103B800001F00CF835E000F00BFD9DED061B53EC49
:103B9000112B00F005FF41EC100B2F48784400EB8F
:103BA000C40090ED001B51EC100B53EC112B01F0F5
:103BB00001F89DED061B53EC112B00F0FBFF41ECCF
:103BC000100B2648784400EBC40090ED001B51EC2C
:103BD000100B53EC112B00F0E1FF41EC100B002D0A
:103BE000A2BFBDEC068B02B070BD51EC100B00F013
:103BF00099FC41EC100B01E7000010440000F07F3D
:103C0000182D4454FB21F93F182D4454FB21F9BFD2
:103C10000000DC3F0000203E0000F33F00000000F9
:103C2000000000000000F03F0000E63F0000000040
:103C30000000000000000040008003400000000081
:103C4000000000000000F83F000000000000F0BF8E
:103C5000D01300008613000010130000C8120000EB
:103C600070B504462DED028B4D1E00EBC500B0EE85
:103C7000408AF0EE608A90ED000B35F0060017D018
:103C800053EC182B51EC100B00F08AFE41EC100B9A
:103C90006D1E04EBC50090ED001B51EC100B53ECB6
:103CA000112B00F07DFC41EC100B35F00600E7D144
:103CB000022D36D0042D1CD0062D1CBFBDEC028B6E
:103CC00070BD53EC182B51EC100B00F069FE94ED15
:103CD0000A1B53EC112B00F063FC53EC182B00F083
:103CE0005FFE94ED081B53EC112B00F059FC41ECE6
:103CF000100B53EC182B51EC100B00F051FE94ED0F
:103D0000061B53EC112B00F04BFC53EC182B00F06E
:103D100047FE94ED040B53EC102B00F041FC41ECFA
:103D2000100B53EC182B51EC100B00F039FE94EDF6
:103D3000021B53EC112B00F033FC53EC182B00F05A
:103D40002FFE94ED001B53EC112B00F029FCBDEC71
:103D5000028B41EC100B70BD9FED050B10B553ECC1
:103D6000102B51EC100B00F01BFE41EC100B10BDA2
:103D7000000000000000001010B52DED028BF0EEE9
:103D8000608AB0EE408AF5EEC08AF1EE10FA13D1E7
:103D9000B5EEC08A9FED190AF1EE10FA04D29FED3C
:103DA000180ABDEC028B10BDB5EEC08AF1EE10FA18
:103DB000F7D19FED140AF4E788EE280A10EE100AF6
:103DC00000F0E2FF41EC100BFFF7DAFD51EC100BB5
:103DD00000F0B4FB00EE100AF5EEC08AF1EE10FA26
:103DE000DFD2B5EEC08ADFED080AF1EE10FA02D29A
:103DF00030EE600AD5E730EE200AD2E7DB0FC93F8C
:103E0000DB0FC9BF00000000DB0F494082B0CDE9E5
:103E1000000121F0004001909DED000B02B051EC3B
:103E2000100B70470EB500EE101A0949B7EE001AD4
:103E3000F8EE400A07C981EE200A8DE80700044821
:103E40000C3890E80E00A0F5C96000F037F90EBDFF
:103E50003C08002070B50D460020FDF7CBFB052186
:103E6000154CB5FBF1F2A0680121401C0026A060B2
:103E7000824201D8A6602170E068401CE060A84240
:103E800007D3E6606068401C6060012801D160785B
:103E900068B1607801280BD0022807D12A4607496B
:103EA0000748FCF7F1FA002800D0667070BD617019
:103EB0000220607070BD000008000020A0010020FA
:103EC000B8010020FCF780FBFCF794FBFEE7000044
:103ED0000FB410B504002DED0A8B484890ED009A00
:103EE00090ED018AD0ED028A7ED094F84406002835
:103EF0007ED0DDED0DAA9DED0EAADDED0F9A2AEE26
:103F0000AA0A0AEE0A0A09EEA90AFDF771FD6AEE8D
:103F100080BA6AEE00AA29EE80BA2BEE88AA2AEEB1
:103F2000A8CA6BEE099A0AEEC9AA0BEE48CA4BEE74
:103F3000E89A2CEE0C0A09EEA90A0AEE0A0AFDF725
:103F400057FD2BEE899A2CEE00CA69EE809A2AEE74
:103F500000AA0AEE889AF7EE00AA0BEE289AF6EE6F
:103F6000008A39EE2A0A20EE280AFDF739FDB0EE64
:103F7000408A3AEEC90A20EE280AFDF731FDF0EE3C
:103F8000400AB0EE480A84ED000A2CEE201A20EE1A
:103F9000000A69EEA01A6AEE200A84ED011A01EE09
:103FA000010AC4ED021AC4ED030A01EEA10A00EEF3
:103FB000A00AFDF71DFDD4ED000A60EE800AC4EDF5
:103FC000000AD4ED010A60EE800AC4ED010AD4EDC6
:103FD000020A60EE800AC4ED020AD4ED030A20EE64
:103FE000800A84ED030A00E002E0012084F845061F
:103FF000BDEC0A8B10BC5DF814FB0000804E00087D
:1040000010B5040050D04FF4D461FCF794F9B7EE2A
:10401000000A84ED0A0A84ED120A84ED1A0A84ED7E
:10402000220A84ED2A0A84ED320A84ED3A0A84EDEC
:104030006C0A84ED740A84ED7C0A84ED840A84EDB4
:104040008C0A84ED940A84ED9C0A9FED180A04F50D
:10405000806084ED3B0A84ED430A84ED4B0A84EDD5
:10406000530A84ED5B0A84ED630A84ED6B0A9FEDCD
:10407000100A84EDC70A84EDCF0A84EDD70A84EDD7
:10408000DF0A9FED0C0A84EDE70A84EDEF0A84ED68
:10409000F70A9FED090A84EDF80A84EDFC0A80ED29
:1040A000000A012084F8440610BD00006F12833A14
:1040B000CDCC4C3DBD370635802DAF3B0FB4B6EEB1
:1040C000002A2DED020B2DE9F04F93462DED088BC4
:1040D00089B020EE029A0400DDED200ADDED211A00
:1040E0009DED221A7ED094F845060028FAD094ED72
:1040F000040A94ED00BAD4ED03BA30EEC00AD4ED50
:1041000002AA94ED01AA60EE098A94ED050A31EE47
:10411000C00A6BEE280A20EE098A94ED060A31EEF9
:10412000400A4BEEC80A60EE099A2AEE680A4AEE87
:10413000A90A0AEEC80A70EE8A1A6BEEA80A0BEEFC
:10414000E90A4BEE080A30EE0B0A4AEE690A84EDE2
:10415000000A20EE000AC4ED011A30EEAA1A6AEE37
:10416000080A01EEA10A84ED021A4AEEE80A01EEFD
:10417000010A4BEE290A70EEAB0AC4ED030A00EE09
:10418000A00AFDF735FCD4ED000A04F5806504F5BE
:10419000CE6120EE801A04F5CC6084ED001AD4EDD7
:1041A000010A60EE801AC4ED011AD4ED020A60EE35
:1041B000800AC4ED020A94ED032A22EE000A84ED7F
:1041C000030A85ED981AC5ED991AC5ED9A0A85ED91
:1041D0009B0ACDE90201FDF74EFF2BEE490A2AEEBC
:1041E000091A00E087E1F1EE682AC4ED0B2AB1EE6E
:1041F000483A6AEE891A84ED0C3AB1EE692A6BEE00
:10420000890A84ED0D2A84ED0E1AC4ED0F1AC4ED4F
:10421000100AC4ED118AC4ED139A84ED143A84EDAA
:10422000150AC4ED160AB1EE613A84ED173A84ED31
:10423000188A84ED192AC4ED1B8AF1EE600AC4EDD8
:104240001C0A84ED1D0A84ED1E1AC4ED1F9A84ED2C
:10425000208AC4ED212AC4ED231AF1EE410A4FF061
:104260000709C4ED240A84ED250A04F58468CDE924
:10427000009804F1EC0304F128001E464A46494622
:104280000746FDF7E1FDCDE9009607223B461146C2
:104290004046FDF741FE072204F5477311463046BC
:1042A0000096FDF767FE94ED000AB0EE008AD4EDAB
:1042B000030A20EE081A94ED010A04F51D7160EE60
:1042C000C80A60EE081A94ED020A04F5B5604FF0D2
:1042D000030AB1EE612A20EE080A84EDA02A84EDDB
:1042E000A42A0B4681EC030AB1EE411A84EDA51A0B
:1042F000C4EDA60AB1EE402A84EDA72A84EDAB1ADC
:10430000C4EDAC1A84EDAD0AC4EDAE0A0690CDE959
:1043100000A00722114604933046FDF7FDFD04F28C
:10432000FC57CDE900A707220321069B0498FDF75F
:104330008BFD032204F57873114638460097FDF78C
:1043400019FE04F5C462032138460792FDF762FCAA
:1043500004F532700590CDE900A0DDE906030322E3
:104360000721FDF771FDD4ED011AD4ED030A94ED98
:10437000000A94ED021A61EEA02AB8EE002A40EE7F
:10438000412A21EE201A00EE211A20EE000A62EEE8
:10439000822A00EEA00AF7EE000A21EE021AC4ED0E
:1043A000072A84ED081A40EE480A08EE10BAC4ED58
:1043B000090A9DED1D9ADDED1F8A29EE090A08EE16
:1043C000080A08EEA80AFDF713FB69EE000AD4ED0F
:1043D000071A28EE001A28EE800A70EEE10A2F1D57
:1043E0000120C4ED070AD4ED080A04F11C030322DE
:1043F00071EE600A0721C4ED080AD4ED090A30EE17
:10440000600A84ED090ACDE900070598FDF71CFD57
:104410003B460122072120460094FDF7ABFD94EDB9
:10442000000AD4ED010A20EE000A00EEA00AD4ED45
:10443000020A00EEA00AD4ED030A00EEA00AFDF77E
:10444000D7FAD4ED000A04F5CC6060EE800AC4ED22
:10445000000A94ED011A21EE001A84ED011AD4ED40
:10446000021A61EE801AC4ED021A94ED032A22EEBC
:10447000000A84ED030A85ED9B0AC0EC030ADDE91E
:104480000201FDF7F8FDCDE90098DDE904300322D3
:104490000721FDF7D9FCE037CDE900970722334625
:1044A00011464046FDF7D0FC07223B4611463046F8
:1044B0000096FDF75FFD04F294610298FDF764FE3B
:1044C000D5EDA50A9FED120A60EE800AC5EDA50A9A
:1044D000D5EDA60A60EE800AC5EDA60AD5EDA70ABD
:1044E00020EE800A85EDA70A09B0BDEC088BBDE877
:1044F000F00F5DF81CFBCDED000ACDED011A8DED3E
:10450000021A20461F9B1D99FFF7E2FCECE7000012
:10451000E12E654202480168491C016070470000B5
:104520003C00002081F00041704780F0004070475F
:1045300021F00041704720F00040704721F0004218
:10454000A2F16052B2F5801F01F0004328BFD2F102
:104550007F6C0BD95FEA001C43EAC20242EB507049
:1045600018BF704728BF20F001007047B2F5801FC8
:10457000BCBF184670474FEA410C1CF5001F02D221
:10458000084600F077BC70B500F0B4FA000000896E
:10459000FFF7F6BF4FF00040A0F580007047000025
:1045A00010B591EA030F48BF83F0004300F10A837E
:1045B000841A71EB030C05D2121943EB0C03001B98
:1045C00061EB0C01DFF824E14FEA1154A4EB135C1A
:1045D0001EEA430F18BF9EEA445F73D023EA0E031E
:1045E000DCF1200E21EA045143F4801332D322FA85
:1045F0000CFE10EB0E0023FA0CFE41EB0E01CCF189
:10460000200E03FA0EFE10EB0E0051F10001B1F581
:10461000801FCCF1200E32D201EB045112FA0EF2BF
:10462000BDE8104058BF7047401C38BF5FEA4202E7
:1046300018BF7047002814BF20F0010041F10001AD
:104640004FEA410313F5001F38BF7047A1F1C04185
:1046500000F09EBA012A43EB0302ACF1200CDCF11E
:104660001F0E32BF4FF0000E23FA0CF310EB0300C5
:1046700041EB0451B4EB115FD0D0A1EB045101F533
:10468000801149085FEA300001EB04510ED350F16C
:10469000000038BF12FA0EFE08D1BDE81040C9E78D
:1046A000401C38BF5FEA4202CAD1C3E7BDE81040F0
:1046B0004FEA410313F5001F38BF7047A1F1C04115
:1046C00000F066BA9EEA445F08D011EA5E0FBDE8CA
:1046D000104004BF01F0004100207047BDE81040C9
:1046E00070B500F007FA00BF64FBBE3E0000E0FFBB
:1046F0002DE9C04130B4DFF8A0C23CEA111418BF64
:104700003CEA131400F0EC8081EA03051CEA111462
:1047100044EAD57418BF1CEA131500F0C780A4EB57
:1047200005044FF0004545EAC12145EAC32341EAAB
:10473000505143EA525304F17F74994204F5003416
:104740004FEAC0204FEAC22208BF904200F09C808E
:104750004FEA13650FF24016765D4FEA134506FBEC
:1047600005F7C7F1807706FB07F74FEAD737A7FBB6
:1047700003687642C8F58038A7FB06CE38BFA8F19B
:10478000010807FB08E64FF0000EA6FB028CE6FBD3
:1047900003CEDCF1000CCEF1004E38BFAEF1010EBD
:1047A000A6FB0C584FF000074FF00005E6FB0E8704
:1047B000A1FB08C6A0FB07CE16EB0E0645F10005CF
:1047C000E1FB076515F1E04E7EBFA4F580345FEA9A
:1047D00046066D4116F1800745F100054FEA17279F
:1047E0004FEA066647EA0567A6F1DE46B6F1805F46
:1047F0004FEA15251FD9384624F0010C05EBC4718A
:10480000BCF1FE6F01EB0C1102D8F0BCBDE80081D9
:1048100024425CBF01F5801E9EEAC47F02D4F0BC36
:10482000BDE80081244238D4F0BCA1F1C041BDE80C
:10483000004100F0ADB94FEAD22242EA43524FEABA
:10484000D323A7FB02864FEAD02040EA415007FB62
:1048500003661EEA0E0F4FEAD12105FB026658BF20
:10486000A6EB0056B6EB00564FEA520E4EEAC37E58
:1048700018EB0E0E56EB530EBDD518EB02085E4139
:104880007F1C55F10005B6E74FF480154FF0000787
:104890004FF000064FF00008ADE7F0BC4FF000000D
:1048A00001F1C04101F00041BDE8008111EA0C1F97
:1048B0000CEA131500D00CE013EA0C1F00F0258061
:1048C0004FF00000F0BC81EA030101F00041BDE8B7
:1048D0000081F0BC81EA0301BDE8004100F058B955
:1048E000F0BCBDE8004170B500F004F9097EFC3E63
:1048F00000F007B881EA03014FF0000001F0004129
:10490000704781EA030100F043B9F0BC4FF00000AA
:104910002249BDE800417047FFFDFBF9F7F5F4F2CD
:10492000F0EEEDEBE9E8E6E4E3E1E0DEDDDBDAD84A
:10493000D7D5D4D3D1D0CFCDCCCBCAC8C7C6C5C4A8
:10494000C2C1C0BFBEBDBCBBBAB9B8B7B6B5B4B3BF
:10495000B2B1B0AFAEADACABAAA9A8A8A7A6A5A4AA
:10496000A3A3A2A1A09F9F9E9D9C9C9B9A9999986E
:104970009797969595949393929191908F8F8E8E11
:104980008D8C8C8B8B8A898988888787868585849E
:1049900084838382828181800000FF070000F87F8A
:1049A000DFF848C170B51CEA111E1EBF1CEA1315C2
:1049B0009EEA0C0F95EA0C0F00F06F8081EA030469
:1049C00023EA4C134EEAD47E21EA4C1141F48011C3
:1049D00043F48013AE44A1FB024CA0FB0365AEF18F
:1049E0007F7E361955EB0C05A1FB034C4CF10003FF
:1049F000A0FB021C16EB0C06654153F100030942B3
:104A000018BF46F0010613F4007F0BD14FEA0331C3
:104A10004FEA0530340341EA155140EA16506FF071
:104A200003020AE04FEAC3214FEAC520F40241EA3B
:104A3000555140EA56506FF0020202EB2E4201EB54
:104A4000025585EACE710AD05FEA440C18BF24F003
:104A5000004450F1000041F1000120EAD47040F21E
:104A6000FE7C624500D270BDA84214BF4FF0804466
:104A70004FF04044002E08BF0024BEF1806FA8BF55
:104A8000A1F1C041BDE8704080F282804FF000008B
:104A900001F1C04101F0004170479EEA0C0F0CEAA1
:104AA000131518BF95EA0C0F06D04FF0000081EAED
:104AB000030E0EF0004170BD00F01CF88900013EAD
:104AC00000F007B800F009B84FEA430C5FEA5C5CFD
:104AD00008D081EA030100F05BB84FEA410C5FEABD
:104AE0005C5CF6D14FF00000014970470000FF0701
:104AF0000000F87F0EF1020E2EF0030E5EF8046B3C
:104B0000364205D4012A43EB030515F5001F12D8E0
:104B1000012841EB010C1CF5001F0CD80ED14FEA07
:104B2000D17C15F5001F0CEB4C0C0CF1020C08BFEE
:104B30004CEBD37C04E04FF0080C01E04FEAD37C4F
:104B40000CEB4C0526FA05F606F00706B6F1040C48
:104B500006D20EEB860CBDE870404CF0010C6047AD
:104B6000DFE80CF0090B02024FF000414FF00000AB
:104B7000A1F5002170BD19461046012851EB010432
:104B800018BFD4F5001484BF002001F0004170BDAF
:104B90000808A0F500114FEA3101704791EA030FB0
:104BA00010B581F000413FF503AD83F0004300F004
:104BB00009B8000010B591EA030F48BF83F0004325
:104BC0003FF5F6AC841A71EB030C07D212198CF086
:104BD000004C43EB0C03001B61EB0C01DFF8A4E17C
:104BE0004FEA1154A4EB135C1EEA430F18BF9EEA70
:104BF000445F00F0B08023EA6E03524221EA045180
:104C0000C3EB6E0338BF5B1EDCF1200E25D322FA06
:104C10000CFE10EB0E0043FA0CFE41EB0E01CCF142
:104C2000200E03FA0EFE10EB0E0051F10001CCF144
:104C3000200E29D412FA0EF201EB0451BDE8104007
:104C400058BF7047401C1CBFB2F1004F704700288E
:104C50000CBF491C20F00100704712EB020E43EB21
:104C6000030218BF4FF0010E4EEA4202ACF1200CD5
:104C7000DCF11E0E54D943FA0CFE10EB0E0051F17C
:104C8000FF31CCF11E0ED5D50EF1010E12FA0EFE3B
:104C9000404141EB010101EB445C5FEA5C5C10D9EF
:104CA00010EBDE7001EB045138BFBEF1004FBDE8E0
:104CB000104018BF704700280CBF491C20F00100AD
:104CC000704730D24FEAD42C11F5001124F400645F
:104CD0001BD0B1FA81F20B3AA41AA41ED2F1200320
:104CE000914030FA03F31943904001EBCC71002C52
:104CF00001EB0451BDE81040A8BF704701F1C0416D
:104D00004FF0000001F000417047B0FA80F310FA54
:104D100003F100D110BDE41A173C4805C90AE4E7C5
:104D200001EB045110BD491001EB0451BDE81040E6
:104D30004FEA300002E04FF0000170474A0008BF20
:104D40000042F8D0B2F5001F28BF704701F00041C3
:104D50004FF0000070479EEA445F07D011EA5E0FF3
:104D6000BDE8104004BF002100207047BDE810409E
:104D700070B5FFF7BFFE00BF40DFF63E83F0004195
:104D8000104670470000E0FF43004FEAD30C4FEAA3
:104D90003C0C43401FBF40070CF1605113F0FE4F25
:104DA00070471CF0006F03D100200CF000417047E9
:104DB0000CF0004343EA507010B540EACC0000F01C
:104DC0000EF800BF000000924FEA0001FFF7E0BEBE
:104DD0004FF000414FF00000A1F5002170470EF1A7
:104DE000020E2EF0030E5EF8044B244204D44FEA68
:104DF0004102B2F17F4F11D84FEA4003B3F17F4F28
:104E00000CD80ED14FEAD07CB2F17F4F0CEB4C0C9A
:104E10000CF1020C08BF4CEBD17C04E04FF0080C05
:104E200001E04FEAD17C0CEB4C0324FA03F404F0CC
:104E30000704B4F1040C06D20EEB840CBDE810405C
:104E40004CF0010C6047DFE80CF0070802024FF05D
:104E50000040A0F5800010BD0846420018BFD2F106
:104E6000807288BF00F0004010BD4FF04070E1EE4E
:104E7000100A7047FF2141EAD050C005704700007A
:104E80000000000000000000000080BF00000000E3
:104E90004FBB610567ACDD3F182D4454FB21E93F52
:104EA0009BF681D20B73EF3F182D4454FB21F93F41
:104EB000E2652F227F2B7A3C075C143326A6813CC7
:104EC000BDCBF07A8807703C075C143326A6913C72
:104ED000C4EB98999999C9BF711623FEC671BCBFDE
:104EE0006D9A74AFF2B0B3BF9AFDDE522DDEADBF46
:104EF0002F6C6A2C44B4A2BF0D5555555555D53F5E
:104F0000FF8300922449C23F6E204CC5CD45B73F78
:104F1000513DD0A0660DB13FEB0D76244B7BA93FF0
:104F200011DA22E33AAD903F484F0008000000201C
:104F300084000000C4010008CC4F00088400002059
:104F40005C1D0000E00100080000000000000000FF
:104F50000000000000000000000000000000000051
:104F6000000000000102030401020304060708090F
:104F700000BD010500000000000000000102030464
:104F800006070809000000000D2F0008512E000838
:104F9000ED320008D13100088D3100084B35000892
:104FA000BB3100083D3000084B3000080000000015
:104FB0000000000040000020000000000000000091
:0C4FC000000000000000000000000000E5
:040000050800018965
:00000001FF
